:020000040800F2
:1000000000A00020753E0008493D00084B3D000857
:100010004D3D00084F3D0008513D00080000000024
:10002000000000000000000000000000533D000838
:10003000553D000800000000573D0008593D0008EC
:10004000C53E0008C53E0008C53E0008C53E000884
:10005000C53E0008C53E0008C53E0008C53E000874
:10006000C53E0008C53E0008C53E0008C53E000864
:10007000C53E0008C53E0008C53E0008C53E000854
:10008000C53E0008C53E0008C53E0008C53E000844
:10009000C53E0008C53E0008C53E0008C53E000834
:1000A000C53E0008C53E0008C53E0008C53E000824
:1000B000C53E0008C53E0008C53E0008C53E000814
:1000C000C53E0008C53E0008C53E0008C53E000804
:1000D000C53E0008C53E0008C53E0008C53E0008F4
:1000E000C53E0008C53E0008C53E0008C53E0008E4
:1000F000C53E0008C53E0008C53E0008C53E0008D4
:10010000000000000000000000000000C53E0008E4
:10011000C53E0008C53E0008653D0008C53E000814
:10012000C53E0008C53E0008C53E0008C53E0008A3
:10013000C53E0008C53E00080000000000000000A9
:10014000C53E0008C53E0008C53E0008000000008E
:10015000000000000000000000000000000000009F
:100160000000000000000000C53E0008C53E000879
:10017000C53E000800000000000000000000000074
:0801800000000000C53E00086C
:1001C00010B5054C237833B9044B13B10448AFF391
:1001D00000800123237010BDBC0900200000000036
:1001E000049A000808B5034B1BB103490348AFF359
:1001F000008008BD00000000C0090020049A00082B
:1002000090F800F06DE9024520F007016FF0000C56
:1002100010F0070491F820F040F049804FF00004FE
:100220006FF00700D1E9002391F840F000F10800D9
:1002300082FA4CF2A4FA8CF283FA4CF3A2FA8CF311
:100240004BBBD1E9022382FA4CF200F10800A4FA78
:100250008CF283FA4CF3A2FA8CF3E3B9D1E90423CC
:1002600082FA4CF200F10800A4FA8CF283FA4CF303
:10027000A2FA8CF37BB9D1E9062301F1200182FABD
:100280004CF200F10800A4FA8CF283FA4CF3A2FAC3
:100290008CF3002BC6D0002A04BF04301A4612BAD1
:1002A000B2FA82F2FDE8024500EBD2007047D1E9D4
:1002B000002304F00305C4F100004FEAC50514F063
:1002C000040F91F840F00CFA05F562EA05021CBF34
:1002D00063EA050362464FF00004A9E7000000004E
:1002E00001F0FF01102A2BDB10F0070F08D010F8E7
:1002F000013B013A8B422DD010F0070F42B3F6D1EB
:10030000F0B441EA012141EA014122F007047FF003
:1003100000070023F0E80256083C85EA010586EA5A
:10032000010685FA47F5A3FA87F586FA47F6A5FA96
:1003300087F68EB9EED1F0BC01F0FF0102F00702A2
:1003400032B110F8013B013A83EA010313B1F8D14D
:100350000020704701387047002D06BF354603382E
:10036000073815F0010F07D1013015F4807F02BF67
:10037000013015F4C03F0130F0BC0138704700BFB8
:10038000844641EA000313F003036DD1403A41D3A0
:1003900051F8043B40F8043B51F8043B40F8043B5F
:1003A00051F8043B40F8043B51F8043B40F8043B4F
:1003B00051F8043B40F8043B51F8043B40F8043B3F
:1003C00051F8043B40F8043B51F8043B40F8043B2F
:1003D00051F8043B40F8043B51F8043B40F8043B1F
:1003E00051F8043B40F8043B51F8043B40F8043B0F
:1003F00051F8043B40F8043B51F8043B40F8043BFF
:1004000051F8043B40F8043B51F8043B40F8043BEE
:10041000403ABDD2303211D351F8043B40F8043B8E
:1004200051F8043B40F8043B51F8043B40F8043BCE
:1004300051F8043B40F8043B103AEDD20C3205D39E
:1004400051F8043B40F8043B043AF9D2043208D096
:10045000D2071CBF11F8013B00F8013B01D30B8808
:1004600003806046704700BF082A13D38B078DD0E6
:1004700010F003038AD0C3F10403D21ADB071CBFB8
:1004800011F8013B00F8013B80D331F8023B20F822
:10049000023B7BE7043AD9D3013A11F8013B00F85B
:1004A000013BF9D20B7803704B7843708B788370E3
:1004B0006046704781F0004102E000BF83F00043D6
:1004C00030B54FEA41044FEA430594EA050F08BFEF
:1004D00090EA020F1FBF54EA000C55EA020C7FEAB3
:1004E000645C7FEA655C00F0E2804FEA5454D4EB30
:1004F0005555B8BF6D420CDD2C4480EA020281EAFA
:10050000030382EA000083EA010180EA020281EA31
:100510000303362D88BF30BD11F0004F4FEA013183
:100520004FF4801C4CEA113102D0404261EB410192
:1005300013F0004F4FEA03334CEA133302D0524218
:1005400063EB430394EA050F00F0A780A4F10104D4
:10055000D5F1200E0DDB02FA0EFC22FA05F280180E
:1005600041F1000103FA0EF2801843FA05F35941F4
:100570000EE0A5F120050EF1200E012A03FA0EFC73
:1005800028BF4CF0020C43FA05F3C01851EBE3719D
:1005900001F0004507D54FF0000EDCF1000C7EEBBA
:1005A00000006EEB0101B1F5801F1BD3B1F5001FF8
:1005B0000CD349085FEA30004FEA3C0C04F1010417
:1005C0004FEA445212F5800F80F09A80BCF1004F40
:1005D00008BF5FEA500C50F1000041EB045141EAC2
:1005E000050130BD5FEA4C0C404141EB010111F4C3
:1005F000801FA4F10104E9D191F0000F04BF01466E
:100600000020B1FA81F308BF2033A3F10B03B3F14B
:1006100020020CDA0C3208DD02F1140CC2F10C02DB
:1006200001FA0CF021FA02F10CE002F11402D8BF39
:10063000C2F1200C01FA02F120FA0CFCDCBF41EA05
:100640000C019040E41AA2BF01EB0451294330BDD4
:100650006FEA04041F3C1CDA0C340EDC04F11404B1
:10066000C4F1200220FA04F001FA02F340EA030088
:1006700021FA04F345EA030130BDC4F10C04C4F1CE
:10068000200220FA02F001FA04F340EA03002946AE
:1006900030BD21FA04F0294630BD94F0000F83F4F8
:1006A000801306BF81F480110134013D4EE77FEADB
:1006B000645C18BF7FEA655C29D094EA050F08BF27
:1006C00090EA020F05D054EA000C04BF1946104608
:1006D00030BD91EA030F1EBF0021002030BD5FEA4C
:1006E000545C05D14000494128BF41F0004130BD74
:1006F00014F580043CBF01F5801130BD01F00045C8
:1007000045F0FE4141F470014FF0000030BD7FEA3A
:10071000645C1ABF194610467FEA655C1CBF0B4635
:10072000024650EA013406BF52EA033591EA030F4C
:1007300041F4002130BD00BF90F0000F04BF002144
:10074000704730B54FF4806404F132044FF0000577
:100750004FF0000150E700BF90F0000F04BF0021F0
:10076000704730B54FF4806404F1320410F0004556
:1007700048BF40424FF000013EE700BF42004FEA51
:10078000E2014FEA31014FEA02701FBF12F07F43CE
:1007900093F07F4F81F06051704732F07F4208BF85
:1007A000704793F07F4F04BF41F40021704730B58C
:1007B0004FF4607401F0004521F000411CE700BFD8
:1007C00050EA010208BF704730B54FF000050AE05B
:1007D00050EA010208BF704730B511F0004502D55C
:1007E000404261EB41014FF4806404F132045FEA5E
:1007F000915C3FF4D8AE4FF003025FEADC0C18BF07
:1008000003325FEADC0C18BF033202EBDC02C2F1F8
:10081000200300FA03FC20FA02F001FA03FE40EA8A
:100820000E0021FA02F11444BDE600BF70B54FF08E
:10083000FF0C4CF4E06C1CEA11541DBF1CEA13556C
:1008400094EA0C0F95EA0C0F00F0DEF82C4481EAD4
:10085000030621EA4C5123EA4C5350EA013518BFF4
:1008600052EA033541F4801143F4801338D0A0FBE1
:1008700002CE4FF00005E1FB02E506F00042E0FB8E
:1008800003E54FF00006E1FB03569CF0000F18BF94
:100890004EF0010EA4F1FF04B6F5007F64F540743C
:1008A00004D25FEA4E0E6D4146EB060642EAC621CF
:1008B00041EA55514FEAC52040EA5E504FEACE2E3C
:1008C000B4F1FD0C88BFBCF5E06F1ED8BEF1004F3F
:1008D00008BF5FEA500E50F1000041EB045170BDBB
:1008E00006F0004646EA010140EA020081EA0301FF
:1008F000B4EB5C04C2BFD4EB0C0541EA045170BDFB
:1009000041F480114FF0000E013C00F3AB8014F174
:10091000360FDEBF002001F0004170BDC4F10004BD
:10092000203C35DA0C341BDC04F11404C4F120053E
:1009300000FA05F320FA04F001FA05F240EA020099
:1009400001F0004221F0004110EBD37021FA04F6CF
:1009500042EB06015EEA430E08BF20EAD37070BD89
:10096000C4F10C04C4F1200500FA04F320FA05F0E8
:1009700001FA04F240EA020001F0004110EBD370EA
:1009800041F100015EEA430E08BF20EAD37070BD5A
:10099000C4F1200500FA05F24EEA020E20FA04F333
:1009A00001FA05F243EA020321FA04F001F00041E2
:1009B00021FA04F220EA020000EBD3705EEA430E53
:1009C00008BF20EAD37070BD94F0000F0FD101F082
:1009D0000046400041EB010111F4801F08BF013CBB
:1009E000F7D041EA060195F0000F18BF704703F0F9
:1009F0000046520043EB030313F4801F08BF013D80
:100A0000F7D043EA0603704794EA0C0F0CEA13553B
:100A100018BF95EA0C0F0CD050EA410618BF52EAF5
:100A20004306D1D181EA030101F000414FF00000FB
:100A300070BD50EA410606BF1046194652EA430609
:100A400019D094EA0C0F02D150EA013613D195EA7D
:100A50000C0F05D152EA03361CBF104619460AD1C5
:100A600081EA030101F0004141F0FE4141F47001CF
:100A70004FF0000070BD41F0FE4141F4780170BDBF
:100A800070B54FF0FF0C4CF4E06C1CEA11541DBF24
:100A90001CEA135594EA0C0F95EA0C0F00F0A7F826
:100AA000A4EB050481EA030E52EA03354FEA013153
:100AB00000F088804FEA03334FF0805545EA131366
:100AC00043EA12634FEA022245EA111545EA10652E
:100AD0004FEA00260EF000419D4208BF964244F1C5
:100AE000FD0404F5407402D25B084FEA3202B61AE4
:100AF00065EB03055B084FEA32024FF480104FF4B8
:100B0000002CB6EB020E75EB030E22BFB61A75462B
:100B100040EA0C005B084FEA3202B6EB020E75EBBE
:100B2000030E22BFB61A754640EA5C005B084FEA26
:100B30003202B6EB020E75EB030E22BFB61A7546F3
:100B400040EA9C005B084FEA3202B6EB020E75EBFE
:100B5000030E22BFB61A754640EADC0055EA060EBF
:100B600018D04FEA051545EA16754FEA06164FEA02
:100B7000C30343EA52734FEAC2025FEA1C1CC0D1AE
:100B800011F4801F0BD141EA00014FF000004FF03B
:100B9000004CB6E711F4801F04BF01430020B4F1FC
:100BA000FD0C88BFBCF5E06F3FF6AFAEB5EB030CB4
:100BB00004BFB6EB020C5FEA500C50F1000041EBB1
:100BC000045170BD0EF0004E4EEA113114EB5C047E
:100BD000C2BFD4EB0C0541EA045170BD41F4801151
:100BE0004FF0000E013C90E645EA060E8DE60CEA59
:100BF000135594EA0C0F08BF95EA0C0F3FF43BAF76
:100C000094EA0C0F0AD150EA01347FF434AF95EA2C
:100C10000C0F7FF425AF104619462CE795EA0C0F10
:100C200006D152EA03353FF4FDAE1046194622E7DD
:100C300050EA410618BF52EA43067FF4C5AE50EAB7
:100C400041047FF40DAF52EA43057FF4EBAE12E7A7
:100C50004FF0FF3C06E000BF4FF0010C02E000BF88
:100C60004FF0010C4DF804CD4FEA410C7FEA6C5C6B
:100C70004FEA430C18BF7FEA6C5C1BD001B050EA0E
:100C8000410C0CBF52EA430C91EA030F02BF90EAF9
:100C9000020F0020704710F1000F91EA030F58BFB8
:100CA000994208BF90422CBFD8176FEAE37040F01A
:100CB000010070474FEA410C7FEA6C5C02D150EAB8
:100CC000013C07D14FEA430C7FEA6C5CD6D152EA73
:100CD000033CD3D05DF8040B704700BF8446104638
:100CE00062468C461946634600E000BF01B5FFF737
:100CF000B7FF002848BF10F1000F01BD4DF808ED07
:100D0000FFF7F4FF0CBF012000205DF808FB00BFD7
:100D10004DF808EDFFF7EAFF34BF012000205DF831
:100D200008FB00BF4DF808EDFFF7E0FF94BF01207E
:100D300000205DF808FB00BF4DF808EDFFF7CEFF7F
:100D400094BF012000205DF808FB00BF4DF808EDBE
:100D5000FFF7C4FF34BF012000205DF808FB00BF8F
:100D60004FEA410C7FEA6C5C02D150EA013C0AD1A7
:100D70004FEA430C7FEA6C5C02D152EA033C02D199
:100D80004FF0000070474FF0010070474FEA4102FA
:100D900012F5001215D211D56FF47873B3EB6252CD
:100DA00012D94FEAC12343F0004343EA505311F0F4
:100DB000004F23FA02F018BF404270474FF0000086
:100DC000704750EA013005D111F0004008BF6FF0C4
:100DD000004070474FF00000704700BF53B94AB958
:100DE000002908BF00281CBF4FF0FF314FF0FF3033
:100DF00000F072B9ADF1080C6DE904CE00F006F810
:100E0000DDF804E0DDE9022304B070472DE9F04786
:100E1000089E04468846002B4BD18A42154667D966
:100E2000B2FA82F24AB1C2F1200701FA02F320FAC3
:100E300007F7954047EA030894404FEA154E230C04
:100E4000B8FBFEF71FFA85FC0EFB178843EA084340
:100E500007FB0CF1994209D9EB1807F1FF3080F03C
:100E60001B81994240F21881023F2B445B1AA4B2C5
:100E7000B3FBFEF00EFB103344EA034400FB0CFC12
:100E8000A44509D92C1900F1FF3380F00781A4454E
:100E900040F2048102382C4440EA0740A4EB0C04E1
:100EA00000271EB1D4400023C6E900433946BDE8FF
:100EB000F0878B4209D9002E00F0EB800027C6E9AD
:100EC000000138463946BDE8F087B3FA83F7002FB2
:100ED00047D18B4202D3824200F2FA80841A61EB3E
:100EE000030301209846002EE0D0C6E90048DDE764
:100EF00002B9FFDEB2FA82F2002A40F08F80491B6D
:100F00004FEA154E1FFA85F80127B1FBFEFC230CB2
:100F10000EFB1C1143EA014308FB0CF1994207D96F
:100F2000EB180CF1FF3002D2994200F2CD808446DA
:100F3000591AA3B2B1FBFEF00EFB101443EA0444AD
:100F400008FB00F8A04507D92C1900F1FF3302D2A5
:100F5000A04500F2B6801846A4EB080440EA0C4015
:100F60009FE7C7F1200CBB4022FA0CFE4EEA030EAD
:100F700001FA07F420FA0CF521FA0CF34FEA1E48A7
:100F80002543B3FBF8F92C0C08FB19331FFA8EFA32
:100F900044EA034309FB0AF49C4202FA07F200FA0E
:100FA00007F10BD91EEB030309F1FF3080F08780B6
:100FB0009C4240F28480A9F1020973441B1BADB22C
:100FC000B3FBF8F008FB103345EA034400FB0AFAD0
:100FD000A24508D91EEB040400F1FF336BD2A245F1
:100FE00069D90238744440EA0940A0FB0289A4EBA5
:100FF0000A044C45C2464B4654D351D0002E69D00A
:10100000B1EB0A0564EB030404FA0CFCFD40FC4060
:101010004CEA0505C6E90054002747E7C2F1200362
:1010200020FA03F7954001FA02F021FA03F34FEAA0
:10103000154E3843010CB3FBFEF71FFA85F80EFB83
:10104000173341EA034107FB08F38B4204FA02F429
:1010500007D9691807F1FF3C2FD28B422DD9023FE7
:101060002944CB1A81B2B3FBFEF00EFB103341EAE8
:10107000034100FB08F38B4207D9691800F1FF3CDC
:1010800017D28B4215D902382944C91A40EA0747BA
:101090003BE73746304609E70746E7E61846FBE6F2
:1010A0004145ABD2B8EB020A69EB0E020138134698
:1010B000A4E76046E9E7184695E76746D1E7814629
:1010C0007CE702382C4447E7ACF1020C2B442FE7B5
:1010D000384608E73746E9E6704700BF70B50D4E61
:1010E0000D4D761BB61006D00024013455F8043B94
:1010F0009847A642F9D1094E094D761B08F082FCAB
:10110000B61006D00024013455F8043B9847A64297
:10111000F9D170BD24A6000824A600082CA600085A
:1011200024A60008F0B4860743D0541E002A3ED0FF
:10113000CAB2034602E014F1FF3438D303F8012B9E
:101140009D07F8D1032C2BD9CDB245EA05250F2CEC
:1011500045EA054516D9A4F110073F0903F1200619
:1011600006EB071603F1100242E9045542E9025565
:101170001032B242F8D104F00F040137032C03EB14
:1011800007130DD91E462246043A032A46F8045B8B
:10119000FAD8221F22F003020432134404F003049D
:1011A0002CB1C9B21C4403F8011B9C42FBD1F0BC1A
:1011B000704714460346C5E7024B13B1024800F0DE
:1011C00005B8704700000000D9110008002301464F
:1011D0001A46184600F022B838B50A4C0A4D641B6E
:1011E000A4100AD004F18043013B05EB8305013CC8
:1011F00055F804399847002CF9D1BDE8384008F07B
:1012000007BC00BF30A600082CA60008704700BF2E
:10121000704700BF704700BF704700BF2DE9F8431B
:101220002B4D0646286898460F469146FFF7F2FF79
:10123000284B1C68D4F84831002B3DD05A681F2A2F
:101240000DDC02F1010C16BB0232C3F804C02868A1
:1012500043F82270FFF7E0FF0020BDE8F8831E4B43
:101260007BB34FF4C870AFF30080034648B3D4F8A3
:1012700048210021C0E900214FF0010CC4F84801C9
:101280000A46C0F88811C0F88C11002EDCD003EBA0
:1012900082010124C1F88890D3F88801944020434A
:1012A000022EC3F88801C1F80881CDD1D3F88C1182
:1012B0000C43C3F88C41C7E704F5A673C4F8483162
:1012C000BCE72868FFF7A8FF4FF0FF30C5E700BF75
:1012D0003804002068A00008000000000B4B1B68C9
:1012E00010B504460BB19A6B4AB1132C0BD80848C1
:1012F00050F83430013306D000EBC40010BD18465E
:1013000002F016FEF1E7002010BD00BF0C00002027
:10131000E009002070B502F0D7FD13240546002631
:1013200020463146ABBE04464FF0FF302C6070BD06
:10133000F0B585B00C461646FFF7D0FFC8B103687C
:101340000396CDE901340546062401AF204639460F
:10135000ABBE0446621C204605D06B68301A0344BD
:101360006B6005B0F0BDFFF7D5FF431CF5D105B0AC
:10137000F0BD02F0A9FD092303604FF0FF30F0E754
:10138000F0B583B00D461446FFF7A8FF00283DD006
:10139000022C34D8012C06461FD0022C03680FD033
:1013A0006F46CDE900350A2420463946ABBE0446D7
:1013B000631C18D0002C1FDB7560284603B0F0BDFD
:1013C00002AF0C2447F8083D20463946ABBE044620
:1013D000611C0CD025443368E3E740682D180ED417
:1013E00033686F46DDE7FFF795FF0446E2E7FFF756
:1013F00091FF421C0446EDD14FF0FF35DDE702F0CE
:1014000063FD162303604FF0FF35D6E702F05CFD65
:10141000092303604FF0FF35CFE700BFFFF7B0BFF0
:10142000F0B585B00C461646FFF758FF50B3036879
:101430000396CDE901340546052401AF204639461F
:10144000ABBE0446631C16D0002C18DB6A68301B48
:101450000244A6426A6001D005B0F0BD02F034FD3E
:1014600013250646002428462146ABBE05462046E5
:10147000356005B0F0BDFFF74DFF0446E4E74FF0DF
:10148000FF30E9E702F020FD092303604FF0FF3051
:10149000E2E700BF70B582B00446FFF71FFF28B334
:1014A000013C012C064611D902AD336845F8043DD4
:1014B000022420462946ABBE0446631C204610D0B9
:1014C00010B94FF0FF33336002B070BD0B4B9A6818
:1014D0001B699A42E8D14FF0FF330360002002B04D
:1014E00070BDFFF717FF0028EBD0EDE702F0ECFC32
:1014F000092303604FF0FF30E6E700BFE00900205A
:101500000E4A136810B5ABB118446946884209D831
:101510000B490C4C0968A14201D0884202D81060E6
:10152000184610BD02F0D0FC0C2303604FF0FF33CF
:10153000184610BD044B1360E6E700BFDC0900202D
:101540003C040020ADDEFECAA80D002070B50D469B
:10155000FFF7C4FEB8B16B684FF4806243F40053E8
:1015600006466B606A640C2420463146ABBE0446D6
:10157000621C204602D02861002070BDFFF7CAFE21
:10158000431CF8D170BD02F09FFC092303604FF0AB
:10159000FF3070BD10B55822044608460021FFF701
:1015A000C1FD01462046BDE81040FFF7CFBF00BF98
:1015B00070B5FFF793FE044690B1092528462146F1
:1015C000ABBE0446012C09D002F07EFC1325064672
:1015D000002428462146ABBE05463560204670BD36
:1015E00002F072FC09220260204670BD10B504466C
:1015F0000E4B18784FF47A73B3FBF0F30C4A106873
:10160000B0FBF3F000F0B4F868B90F2C01D9012059
:101610000AE0002221464FF0FF3000F04DF8034B66
:101620005C60002000E0012010BD00BF0000002031
:101630000800002008B5074A136843F01003136040
:10164000032000F01BF80020FFF7D0FF02F034FB6E
:10165000002008BD00200240034A1168034B1B789C
:101660000B441360704700BFD80A00200000002020
:10167000014B1868704700BFD80A002010B5044617
:10168000C31E042B0FD80A4AD36823F4E0631B045B
:101690001B0C240204F4E064234343F0BF6343F4CF
:1016A0000033D36010BDBC21024802F0A5FAEAE77E
:1016B00000ED00E06CA0000870B505460C4616462B
:1016C0000F2A25D80F2C28D81B4BDB68C3F3022325
:1016D000C3F10702042A28BF0422191D062921D9B3
:1016E000033B4FF0FF3101FA02F224EA02049C406E
:1016F00001FA03F326EA03063443002D14DB240128
:10170000E4B205F1604505F5614585F8004370BD1B
:10171000D4210A4802F070FAD4E7D521074802F034
:101720006BFAD1E70023DCE705F00F052401E4B2F2
:10173000034B5C55EBE700BF00ED00E06CA0000838
:1017400014ED00E010B5041E08DB04F01F0264096C
:1017500001239340044A42F8243010BDE821034895
:1017600002F04AFAF1E700BF00E100E06CA00008D7
:101770000138B0F1807F0AD2064B5860064AF0214A
:1017800082F823100020986007221A607047012019
:10179000704700BF10E000E000ED00E010B5044627
:1017A000042800D038B9042C0BD0094A136823F060
:1017B0000403136010BD40F2E111064802F01CFA68
:1017C000F1E7034A136843F004031360F2E700BF34
:1017D00010E000E06CA00008704708B5FFF7FCFFC0
:1017E00008BD00002DE9F04782B006460C46B0F176
:1017F000904F16D0A44B984213D003F580639842C3
:101800000FD003F5806398420BD003F580639842B4
:1018100007D003F58063984203D0C3219B4802F0B0
:10182000EBF923689AB212B11B0C1B041BB1C42143
:10183000964802F0E1F96368012B1ED9112B1CD0E8
:10184000022B1AD0122B18D0914A934215D002F5D0
:101850008012934211D002F5801293420DD0A2F56E
:10186000F812934209D002F58012934205D002F596
:101870008012934201D0032B04D1A368022B06D817
:1018800000254AE0C521814802F0B6F9F5E7C621F6
:101890007E4802F0B1F9F3E7D6217C4802F0ACF9BA
:1018A0006DE0EA21794802F0A7F998E0042300E00E
:1018B00000238B4003430232764941F82230764BB5
:1018C0001A68FB4303EA0201606810F4803F01D00C
:1018D00047EA0201704A1160526803EA0201606837
:1018E00010F4003F01D047EA02016B4A5160926850
:1018F00003EA0201606810F4801F01D047EA020188
:10190000654A9160D2681340616811F4001F01D0EC
:1019100047EA0203604AD3600135276837FA05F3C6
:1019200000F0AF804FF0010808FA05F818EA070741
:10193000F2D06368022B01D0122B30D1B6F1904F58
:1019400016D0514B9E4213D003F580639E420FD0B8
:1019500003F580639E420BD003F580639E4207D05F
:1019600003F580639E4203D0D521484802F044F934
:1019700023690C2B03D90E2B01D00F2B8CD1EA0835
:10198000083256F8220005F0070399000F238B4018
:1019900020EA030023698B40034346F82230326873
:1019A0004FEA450A4FF0030909FA0AF96FEA0909F3
:1019B00009EA0202636803F0030303FA0AF313431C
:1019C000336063685A1E012A03D9112B01D0122BF0
:1019D00017D1E368012B02D9032B7FF462AFB26801
:1019E00009EA0202E36803FA0AF31343B360736877
:1019F00023EA08086368C3F30013AB4043EA080313
:101A00007360F36809EA0309A36803FA0AF343EA77
:101A10000903F360636813F0805F3FF47DAF1F4BF1
:101A20009A6942F001029A619B6903F001030193F4
:101A3000019BAA08911C174B53F8210005F00303E2
:101A400099000F238B4020EA0300B6F1904F3FF43A
:101A50002FAF0D4B9E420ED003F580639E420CD0FB
:101A600003F580639E420AD003F580639E423FF4F3
:101A70001DAF05231DE701231BE7022319E70323FD
:101A800017E702B0BDE8F08700040048A8A00008EE
:101A9000000011100000014000040140001002404D
:101AA00038B505460C4621B12B691C4207D10020F0
:101AB00038BD4FF4C871034802F09EF8F4E70120E6
:101AC000F6E700BFA8A0000870B5054614460E460C
:101AD00021B1012C08D86CB9AE6270BD4FF4D87139
:101AE000054802F089F8F4E740F2B111024802F02B
:101AF00083F8F0E7AE61F0E7A8A00008002800F046
:101B00008A8370B582B00446036813B113F00F0FD7
:101B10002BD0236813F0010F4FD063682BB1B3F5BE
:101B2000803F02D0B3F5A02F25D1B44B5B6803F002
:101B30000C03042B2AD0B14B5B6803F00C03082B79
:101B40001FD06368B3F5803F7CD0002B40F0A680A7
:101B500003F1804303F504331A6822F480321A60DB
:101B60001A6822F480221A6071E040F25711A448EA
:101B700002F042F8CDE740F25D11A14802F03CF8D6
:101B8000D3E79E4B5B6813F4803FDAD04FF4003309
:101B900093FAA3F3994B19684FF4003393FAA3F324
:101BA000B3FA83F303F01F03012202FA03F30B429B
:101BB00003D06368002B00F03083236813F0020F1A
:101BC00000F0DA802369012B00F2A08063691F2BEB
:101BD00000F2A280894B5B6813F00C0F00F0A88024
:101BE000864B5B6803F00C03082B00F09B80236995
:101BF000002B00F00981012292FAA2F3B3FA83F3D9
:101C000003F1845303F584139B001A60FFF730FD42
:101C10000546022393FAA3F3784B1968022393FA3B
:101C2000A3F3B3FA83F303F01F03012202FA03F3D1
:101C30000B4240F0D380FFF71BFD401B0228E8D980
:101C40000320F1E26D4A136843F4803313606B4A5A
:101C5000D36A23F00F03A1680B43D3626368002BA0
:101C600036D0FFF705FD05464FF4003393FAA3F392
:101C7000624B19684FF4003393FAA3F3B3FA83F37A
:101C800003F01F03012202FA03F30B4295D1FFF781
:101C9000EFFC401B6428E7D90320C5E2B3F5A02F71
:101CA00009D0564B1A6822F480321A601A6822F45E
:101CB00080221A60CBE703F18043A3F53C331A6816
:101CC00042F480221A601A6842F480321A60BEE739
:101CD000FFF7CEFC05464FF4003393FAA3F3474BCE
:101CE00019684FF4003393FAA3F3B3FA83F303F0C4
:101CF0001F03012202FA03F30B423FF45EAFFFF72A
:101D0000B7FC401B6428E6D903208DE240F2951110
:101D10003B4801F071FF59E74FF4CB71384801F0AF
:101D20006BFF57E7354B5B6813F4803F7FF45FAF81
:101D3000022393FAA3F3314B1968022393FAA3F316
:101D4000B3FA83F303F01F03012202FA03F30B42F9
:101D500004D02369934201D0012065E2274803683B
:101D600023F0F8036169F82292FAA2F2B2FA82F241
:101D700001FA02F213430360236813F0080F00F026
:101D80009880A369012B66D8A369002B69D0012133
:101D900091FAA1F2B2FA82F21A4B13449B00196035
:101DA000FFF766FC0546022393FAA3F293FAA3F227
:101DB00093FAA3F2114A516A93FAA3F3B3FA83F3A5
:101DC00003F01F03012202FA03F30B4271D1FFF764
:101DD0004FFC401B0228E6D9032025E20748036890
:101DE00023F0F8036169F82292FAA2F2B2FA82F2C1
:101DF00001FA02F213430360BEE700BF0010024085
:101E0000E4A0000820819010012393FAA3F3B3FA11
:101E100083F303F1845303F584139B0000221A60BB
:101E2000FFF726FC0546022393FAA3F3B94B196882
:101E3000022393FAA3F3B3FA83F303F01F030122FF
:101E400002FA03F30B4297D0FFF712FC401B022863
:101E5000E9D90320E8E14FF4EB71AF4801F0CCFE83
:101E600092E7012292FAA2F2B2FA82F2AB4B134449
:101E70009B0000221A60FFF7FBFB0546022393FA42
:101E8000A3F293FAA3F293FAA3F2A24A516A93FA45
:101E9000A3F3B3FA83F303F01F03012202FA03F35F
:101EA0000B4206D0FFF7E4FB401B0228E6D90320D3
:101EB000BAE1236813F0040F00F0C080E368012B3F
:101EC00001D9052B26D1934BDB6913F0805F27D115
:101ED000904BDA6942F08052DA61DB6903F080539B
:101EE0000193019B01258E4B1B6813F4807F19D051
:101EF000E368012B2AD0002B34D103F1804303F592
:101F000004331A6A22F001021A621A6A22F00402E9
:101F10001A6220E040F202217F4801F06DFED2E714
:101F20000025E0E77E4A136843F480731360FFF7EF
:101F30009FFB06467A4B1B6813F4807FD8D1FFF7CE
:101F400097FB801B6428F5D903206DE1714A136A61
:101F500043F001031362E368002B41D0FFF788FBD5
:101F600006462BE0052B09D06A4B1A6A22F00102C3
:101F70001A621A6A22F004021A62ECE7654B1A6AC6
:101F800042F004021A621A6A42F001021A62E2E79F
:101F9000604B196A022393FAA3F3B3FA83F303F0B5
:101FA0001F03012202FA03F3194245D1FFF760FB38
:101FB000801B41F28833984200F23181022393FA68
:101FC000A3F293FAA3F3B3FA83F35B0943F002039A
:101FD000022BDDD0022393FAA3F34E4B596AD9E7C3
:101FE000FFF746FB064615E04A4B196A022393FAAF
:101FF000A3F3B3FA83F303F01F03012202FA03F3FE
:10200000194219D0FFF734FB801B41F28833984204
:1020100000F20781022393FAA3F293FAA3F3B3FA2F
:1020200083F35B0943F00203022BDDD0022393FA12
:10203000A3F3384B596AD9E7002D73D1E369022B1A
:1020400076D8E369002B00F0EE80324A526802F045
:102050000C02082A00F0EA80022B40F0B080236ACC
:1020600013B1B3F5803F69D1636A4BB3B3F5802FE9
:1020700026D0B3F5002F23D0B3F5402F20D0B3F5F1
:10208000801F1DD0B3F5A01F1AD0B3F5C01F17D005
:10209000B3F5E01F14D0B3F5001F11D0B3F5101F36
:1020A0000ED0B3F5201F0BD0B3F5301F08D0B3F519
:1020B000401F05D0B3F5501F02D0B3F5601F43D1C8
:1020C0004FF0807393FAA3F3B3FA83F303F18453CD
:1020D00003F584139B0000221A60FFF7C9FA054636
:1020E0004FF0007393FAA3F30A4B19684FF0007393
:1020F00093FAA3F3B3FA83F303F01F03012202FA66
:1021000003F3194226D0FFF7B3FA401B0228E7D9A0
:10211000032089E000100240E4A000082081901014
:1021200000700040424AD36923F08053D36185E7B1
:1021300040F246213F4801F05FFD82E740F24F2127
:102140003C4801F059FD8FE74FF41471394801F014
:1021500053FDB5E736494B6823F47413626A206A6D
:10216000024313434B604FF0807393FAA3F3B3FA27
:1021700083F303F1845303F584139B0001221A6057
:10218000FFF776FA04464FF0007393FAA3F3284B57
:1021900019684FF0007393FAA3F3B3FA83F303F0D3
:1021A0001F03012202FA03F3194206D1FFF760FA76
:1021B000001B0228E7D9032036E0002034E04FF06E
:1021C000807393FAA3F3B3FA83F303F1845303F513
:1021D00084139B0000221A60FFF74AFA04464FF06E
:1021E000007393FAA3F3124B19684FF0007393FA3C
:1021F000A3F3B3FA83F303F01F03012202FA03F3FC
:10220000194206D0FFF734FA001B0228E7D9032051
:102210000AE0002008E001207047012004E00320CC
:1022200002E0032000E0002002B070BD0120FBE7C7
:1022300000100240E4A0000810B4174B5C6804F0E2
:102240000C03082B26D104F470124FF4701393FA88
:10225000A3F3B3FA83F322FA03F31049C85C0E4BDD
:10226000DB6A03F00F030F2292FAA2F2B2FA82F2B3
:10227000D3400B441A7C14F4803F05D1084B03FB78
:1022800000F05DF8044B7047064BB3FBF2F300FB24
:1022900003F0F6E70348F4E700100240209A000834
:1022A00000093D0000127A00002800F01B8170B583
:1022B00004460D46036813F00F0F14D0022D18D8F2
:1022C0008A4B1B6803F00703AB4218D2874A136896
:1022D00023F007032B431360136803F00703AB429B
:1022E0000DD0012070BD40F2BA21814801F084FC7C
:1022F000E4E740F2BB217E4801F07EFCE0E7236882
:1023000013F0020F18D0A3687BB1802B0DD0902B57
:102310000BD0A02B09D0B02B07D0C02B05D0D02BD1
:1023200003D0E02B01D0F02B3ED1724A536823F04A
:10233000F003A1680B435360236813F0010F69D0C9
:102340006368022B36D86368012B39D0022B4CD03E
:10235000022292FAA2F2674A1068022292FAA2F2CC
:10236000B2FA82F202F01F02012101FA02F21042D7
:1023700000F0BA805F494A6822F0030213434B60C1
:10238000FFF776F906465B4B5B6803F00C03626867
:10239000B3EB820F3ED0FFF76BF9801B41F288331D
:1023A0009842F0D903209DE740F2D221504801F035
:1023B00023FCBAE740F2D9214D4801F01DFCC2E7E9
:1023C0004FF4003292FAA2F24A4A10684FF40032F7
:1023D00092FAA2F2B2FA82F202F01F02012101FA8D
:1023E00002F20242C6D101207CE74FF0007292FA5D
:1023F000A2F2404A10684FF0007292FAA2F2B2FACA
:1024000082F202F01F02012101FA02F21042B1D160
:10241000012067E7354B1B6803F00703AB420CD97B
:10242000324A136823F007032B431360136803F049
:102430000703AB4201D0012054E7236813F0040FD7
:1024400014D0E3685BB1B3F5806F08D0B3F5A06F2B
:1024500005D0B3F5C06F02D0B3F5E06F36D1254A91
:10246000536823F4E063E1680B435360236813F07F
:10247000080F15D023695BB1B3F5806F08D0B3F5B1
:10248000A06F05D0B3F5C06F02D0B3F5E06F23D1D4
:10249000184A536823F46053216943EAC103536027
:1024A000FFF7CAFE134B5B6803F0F003F02292FAC9
:1024B000A2F2B2FA82F2D3400F4AD35CD8400F4B5B
:1024C00018600020FFF792F800200BE740F215316A
:1024D000074801F091FBC2E74FF44771044801F04F
:1024E0008BFBD5E7012070470120FBE6002002406E
:1024F000E4A000080010024050A0000808000020DE
:10250000014B1868704700BF08000020F8B5054669
:102510000F4616461C4639E02CB1FFF7A9F8069B7A
:10252000C01AA04232D32A68536823F0E0035360F4
:102530006B68B3F5827F0BD0AB6AB3F5005F14D044
:10254000012385F85D30002385F85C30032025E009
:10255000AB68B3F5004F02D0B3F5806FECD12A68B9
:10256000136823F040031360E6E72A68136823F436
:10257000005313602A68136843F400531360DFE7C5
:102580000123B34209D0B4F1FF3FC5D12B689B684A
:1025900037EA0303F4D00023F3E70020F8BDF0B5D9
:1025A00083B007460C4615461E4602E0B6F1FF3FD3
:1025B00010D13A6893682340AB423FD0B4F5C06F66
:1025C000F4D1002DF2D1137BDBB28DF807309DF8EA
:1025D0000730EBE72EB1FFF74BF8089BC01AB0426B
:1025E000E7D33A68536823F0E00353607B68B3F5A0
:1025F000827F0BD0BB6AB3F5005F14D0012387F84C
:102600005D30002387F85C30032018E0BB68B3F529
:10261000004F02D0B3F5806FECD13A68136823F015
:1026200040031360E6E73A68136823F4005313602D
:102630003A68136843F400531360DFE7002003B0E7
:10264000F0BD70B582B004460D46164600920B46AA
:1026500000224FF4C051FFF7A2FFB8B900962B46F5
:10266000002280212046FFF751FFB8B900962B4683
:1026700000224FF4C0612046FFF791FF034650B19E
:10268000236E43F020032366032304E0236E43F00C
:10269000200323660323184602B070BD236E43F067
:1026A000200323660323F6E7002800F0148110B509
:1026B00004460368894A93420CD0A2F578429342BB
:1026C00008D002F58062934204D040F21B11844886
:1026D00001F092FA63681BB1B3F5827F40F0B380DA
:1026E000A36833B1B3F5806F03D0B3F5004F40F06A
:1026F000B080E368B3F5706F24D0B3F5606F21D07C
:10270000B3F5506F1ED0B3F5406F1BD0B3F5306FEB
:1027100018D0B3F5206F15D0B3F5106F12D0B3F504
:10272000006F0FD0B3F5E06F0CD0B3F5C06F09D0D8
:10273000B3F5A06F06D0B3F5806F03D0B3F5407F3B
:1027400040F08D80A369B3F5007F04D01BB1B3F5D1
:10275000802F40F08A80636B082B02D0002B40F062
:102760008A80E3696BB1082B0BD0102B09D0182B92
:1027700007D0202B05D0282B03D0302B01D0382BAD
:102780007FD1236A13B1802B40F08180636A13B13B
:10279000102B40F08280636A43B9236913B1022B86
:1027A00040F081806369012B00F283800023A362E3
:1027B00094F85D30002B00F08280022384F85D30B5
:1027C0002268136823F040031360E368B3F5E06FF9
:1027D0007BD90022B3F5706F04D0B3F5E06F01D060
:1027E0000021A162216B21B9B3F5E06F70D90223FA
:1027F00023636368A1680B4321690B4361690B4341
:10280000A16901F400710B43E1690B43216A0B4399
:10281000A06A216803430B60638B03F00403616AC1
:102820000B43616B0B43E1680B43216813434B601F
:102830002268D36923F40063D3610020206601235A
:1028400084F85D3010BD4FF48E71254801F0D4F945
:1028500046E740F21D11224801F0CEF949E74FF456
:102860008F711F4801F0C8F96CE740F21F111C4836
:1028700001F0C2F96FE74FF49071194801F0BCF90B
:102880006FE740F22111164801F0B6F979E74FF4ED
:102890009171134801F0B0F978E740F22311104824
:1028A00001F0AAF977E74FF493710D4801F0A4F90C
:1028B00078E740F227110A4801F09EF976E784F89C
:1028C0005C30204601F0C4F977E74FF4805281E78D
:1028D000012323638DE70120704700BF00300140D2
:1028E0001CA100082DE9F04182B004460D461746B0
:1028F0001E46836813B1B3F5004F19D194F85C30CC
:10290000012B00F0D880012384F85C30FEF7B0FE84
:10291000804694F85D30DBB2012B0FD002200123FA
:1029200084F85D30002384F85C3002B0BDE8F081AB
:102930004FF4FF71614801F05FF9DFE7002D00F00F
:10294000B080002F00F0AF80032384F85D300023B7
:102950002366A563A787E7872364A4F84430A4F817
:1029600046302365E364A368B3F5004F1BD02368AA
:102970001A6812F0400F03D11A6842F040021A6040
:10298000E368B3F5E06F32D963681BB1E38F9BB2A4
:10299000012B13D1236835F8022BDA60E38F013B5A
:1029A0009BB2E3870AE02268136843F48043136014
:1029B000DDE7002E79D0B6F1FF3F10D1E38F9BB257
:1029C000002B59D023689A6812F0020FF1D035F825
:1029D000022BDA60E38F013B9BB2E387EEE7FEF761
:1029E00047FEA0EB0800B042E8D3032097E76368F6
:1029F0001BB1E38F9BB2012B22D1E38F9BB2012B42
:102A000008D9236835F8022BDA60E38F023B9BB2CA
:102A1000E38715E023682A781A73E38F013B9BB2A2
:102A2000E38701350CE02A781A73E38F013B9BB2F0
:102A3000E387013504E0002E39D0B6F1FF3F13D112
:102A4000E38F9BB2C3B123689A6812F0020FF2D0F1
:102A5000E28F92B2012AE6D935F8022BDA60E38FD1
:102A6000023B9BB2E387EBE7FEF702FEA0EB080018
:102A7000B042E5D3032052E7424631462046FFF7F5
:102A8000E0FD08B120232366A36833B901932368CE
:102A9000DA6801929B680193019B236E4BB9002079
:102AA0003DE701203BE7012039E7032037E703201A
:102AB00035E7012033E7022037E700BF1CA10008FB
:102AC00010B504460368214A934227D0B3F1804FE2
:102AD00024D0A2F59432934220D002F58062934232
:102AE0001CD002F50062934218D002F58062934236
:102AF00014D002F59032934210D002F54062934216
:102B00000CD002F58062934208D002F580629342B5
:102B100004D04FF4A4710E4801F06EF8022384F83B
:102B20003D302368196A41F21112114208D1196A25
:102B300040F24442114203D11A6822F001021A60A5
:102B4000012384F83D30002010BD00BF002C01405F
:102B500054A1000810B5044603681B4A934227D0CD
:102B6000B3F1804F24D0A2F59432934220D002F5E5
:102B7000806293421CD002F50062934218D002F5A5
:102B80008062934214D002F59032934210D002F545
:102B9000406293420CD002F58062934208D002F565
:102BA0008062934204D040F25F11084801F024F89B
:102BB0002268D36843F00103D3602268136843F0AE
:102BC00001031360002010BD002C014054A1000837
:102BD000704770477047704710B5044603681A691C
:102BE00012F0020F11D0DA6812F0020F0DD06FF060
:102BF00002021A610123037703689B6913F0030F34
:102C000079D0FFF7E6FF0023237723681A6912F0D3
:102C1000040F12D0DA6812F0040F0ED06FF0040225
:102C20001A610223237723689B6913F4407F68D0DD
:102C30002046FFF7CEFF0023237723681A6912F09E
:102C4000080F12D0DA6812F0080F0ED06FF00802E9
:102C50001A61042323772368DB6913F0030F57D02D
:102C60002046FFF7B6FF0023237723681A6912F086
:102C7000100F12D0DA6812F0100F0ED06FF01002A1
:102C80001A61082323772368DB6913F4407F46D059
:102C90002046FFF79EFF0023237723681A6912F06E
:102CA000010F03D0DA6812F0010F3FD123681A69CF
:102CB00012F0800F03D0DA6812F0800F3DD1236844
:102CC0001A6912F4807F03D0DA6812F0800F3BD1CA
:102CD00023681A6912F0400F03D0DA6812F0400F2F
:102CE00039D123681A6912F0200F03D0DA6812F084
:102CF000200F37D110BDFFF76BFF2046FFF76AFFAB
:102D000081E72046FFF764FF2046FFF763FF92E765
:102D10002046FFF75DFF2046FFF75CFFA3E7204654
:102D2000FFF756FF2046FFF755FFB4E76FF00102AB
:102D30001A61204600F03AFCB8E76FF080021A6191
:102D4000204600F08CF9BAE76FF480721A612046D1
:102D500000F086F9BCE76FF040021A612046FFF7E9
:102D60003AFFBEE76FF020021A61204600F076F9C4
:102D7000C0E7000003682C4A90420ED0B0F1804FAB
:102D80000BD0A2F59432904207D002F580629042B7
:102D900003D002F59632904203D123F070034A68C3
:102DA0001343214A90421AD0B0F1804F17D0A2F5B8
:102DB0009432904213D002F5806290420FD002F517
:102DC000963290420BD002F54062904207D002F555
:102DD0008062904203D002F58062904203D123F4D6
:102DE0004073CA68134323F080034A6913430360A6
:102DF0008B68C3620B6883620B4B98420FD003F55C
:102E0000006398420BD003F54063984207D003F566
:102E10008063984203D003F58063984201D10B6927
:102E20000363012343617047002C0140002866D0F2
:102E300010B504460368334A934226D0B3F1804F5D
:102E400023D0A2F5943293421FD002F580629342C0
:102E50001BD002F50062934217D002F580629342C4
:102E600013D002F5903293420FD002F540629342A4
:102E70000BD002F58062934207D002F58062934244
:102E800003D0D521204800F0B7FEA3683BB1102B3A
:102E900005D0202B03D0402B01D0602B1AD1236901
:102EA0002BB1B3F5807F02D0B3F5007F17D1A369B2
:102EB0000BB1802B18D194F83D30D3B1022384F8A4
:102EC0003D30211D2068FFF755FF012384F83D3078
:102ED000002010BDD6210C4800F08EFEDFE7D72180
:102EE000094800F089FEE2E7D821074800F084FE97
:102EF000E1E784F83C30204600F09CFFDEE701204B
:102F0000704700BF002C014054A10008F8B50446EA
:102F10000D4603684F4A93421FD0B3F1804F1CD037
:102F2000A2F59432934218D002F58062934214D0F5
:102F300002F50062934210D002F5806293420CD0F9
:102F400002F59032934208D002F54062934204D0D9
:102F500040F21771404800F04FFE2B686BB1102B08
:102F60000BD0202B09D0302B07D0402B05D0502B75
:102F700003D0602B01D0702B5DD1AB68802B01D0CA
:102F8000002B5ED194F83C30012B60D0012384F8F3
:102F90003C3023685E689F682E4A934203D002F556
:102FA0000062934237D16B688BB3B3F5801F2ED08C
:102FB000B3F5001F2BD0B3F5401F28D0B3F5800F19
:102FC00025D0B3F5A00F22D0B3F5C00F1FD0B3F5B5
:102FD000E00F1CD0B3F5000F19D0B3F5100F16D0C9
:102FE000B3F5200F13D0B3F5300F10D0B3F5400F69
:102FF0000DD0B3F5500F0AD0B3F5600F07D0B3F57D
:10300000700F04D04FF4E561134800F0F5FD26F48D
:1030100070066B681E4326F070062B681E4327F06F
:103020008007AB683B4322685660226893600020AB
:1030300084F83C00F8BD4FF4E361074800F0DCFD84
:103040009BE740F21971044800F0D6FD9AE7022090
:10305000F0E700BF002C01408CA1000870477047CA
:1030600070470000F0B58BB0294B5A6942F400223A
:103070005A615A6902F400220192019A5A6942F493
:1030800080025A615A6902F480020292029A5A69D5
:1030900042F480225A615A6902F480220392039A10
:1030A0005A6942F480125A615B6903F480130493F5
:1030B000049B184F00224FF4E0413846FEF704FD10
:1030C000154D00224FF480412846FEF7FDFC4FF4D9
:1030D000E04305930126069600240794089405A969
:1030E0003846FEF77FFB4FF480430593069607941E
:1030F000089405A92846FEF775FB4FF40043059395
:103100000694079405A92846FEF76CFB0BB0F0BDAA
:103110000010024000040048000C00482DE9F84F60
:103120008346894616469846B0F90050B0F904A087
:10313000AA44B2F904309A45A8BF9A46B0F9027081
:10314000B0F906301F44B2F906309F42A8BF1F46AF
:10315000B2F900301D440DE043464A462146284658
:1031600000F0EDF80134B6F902303B44013BA342D4
:10317000F2DC0135B6F900305344013BAB4205DDCA
:10318000B6F90240BBF902301C44ECE7BDE8F88F09
:10319000F0B585B00A9CB4F90A50002D0DDBB4F9E6
:1031A0000860002E09DB0636B4F90470BE4204D86C
:1031B0000835B4F90660B54201D905B0F0BDB4F9DF
:1031C0000050B4F9026002EB420462000B9C0294CE
:1031D000B3FA83F35B090193082300930623034C9E
:1031E00022443144284400F0CBF8E6E7409A000836
:1031F00010B582B014461A46ADF80000ADF80210C2
:103200000630ADF8040001F10803ADF80630049B68
:1032100021466846FFF782FF02B010BD2DE9F0435A
:1032200083B005468946164698460B9F002408E061
:1032300000970A9B424649462846FFF7D9FF0635C4
:103240000134B442F4DB03B0BDE8F08310B582B0C2
:10325000049C019404F505740094FFF7DFFF02B0AD
:1032600010BD10815181704708B5438909334381EE
:1032700002230381037B03B908BD084600F065F90A
:10328000FAE7F0B583B005460F4614461E4614E033
:10329000B4F90800B4F90A10019600943B46FFF710
:1032A00077FF0EE02B780A2B17D0B4F90A300833D9
:1032B000B4F9062093421ED801352A78DAB10A2AD9
:1032C000E6D1238906331BB223810633B4F90420E7
:1032D0009342E7D96B780A2BE4D031462046FFF7BA
:1032E000C3FF00F095FE6B781844437813F0080F85
:1032F000DBD00135D9E703B0F0BD0CB470B59AB09E
:1033000004460E461EAB53F8042B0093642101A81B
:1033100002F012FD0546234604F50572314601A868
:10332000FFF7AFFF94F820322BB928461AB0BDE85A
:10333000704002B07047204600F007F9F5E700281A
:103340001DDB00291BDB532819DC2F2917DC30B4C7
:10335000CC10542505FB040001F00701012404FAF8
:1033600001F1C9B22AB103441A7F1143197730BC65
:10337000704703441A7F22EA01011977F7E7704783
:103380002DE9F84F83468A4691461E460A9FDDF88E
:103390002C80002525E0E31D08E00C9BFFF7CFFF04
:1033A0000134BC421CDA2346002CF4DBDB1006FBA4
:1033B000035319F80300614204F0070301F0070109
:1033C00058BF4B4201229A40024005EB0B0004EB30
:1033D0000A01B8F1000FE0D0B2FA82F25209DCE73C
:1033E0000135B54201DA0024DBE7BDE8F88F20F0B3
:1033F0002003072B01DD0120704710B582B00C4679
:1034000040F0200002A901F8010D4FF47A73012267
:103410002068FFF767FA002002B010BD30B583B016
:1034200030F00D050CD10C4602A901F8010D4FF446
:103430007A7301222068FFF755FA284603B030BDA1
:103440000225FAE7032810D810B582B00C4640F0E8
:10345000040002A901F8010D4FF47A7301222068DB
:10346000FFF740FA002002B010BD04207047072883
:1034700010D810B582B00C4640F0100002A901F837
:10348000010D4FF47A7301222068FFF72BFA002018
:1034900002B010BD0520704710F0800F10D110B59C
:1034A00082B00C4640F0800002A901F8010D4FF4F3
:1034B0007A7301222068FFF715FA002002B010BDD0
:1034C00003207047F0B583B004460D4617461E46EC
:1034D00003681A68136843F0400313600022818870
:1034E0008068FEF7F1FA0022A1892069FEF7ECFA64
:1034F00064230193019B013B0193002BFAD101222C
:10350000A1892069FEF7E0FA0022A18AA069FEF7EE
:10351000DBFA21460120FFF76AFF21463846FFF714
:10352000BBFF21463046FFF78DFF21469DF8200066
:10353000FFF79DFF21460020FFF759FF214628464F
:10354000FFF76CFF002003B0F0BD10B582B0044659
:10355000002281888068FEF7B7FA0022A18AA0695C
:10356000FEF7B2FA02A9802301F8013D4FF47A7305
:1035700001222068FFF7B6F902A9402301F8023DB5
:103580004FF47A7301222068FFF7ACF90122A18A77
:10359000A069FEF799FA4FF47A734FF4FC7204F1C4
:1035A0001C012068FFF79EF902B010BD0268044BB1
:1035B0009A4200D07047034A136801331360F9E759
:1035C00000100040D809002010B50A4C2046FFF733
:1035D00077FA094B1B68094AA2FB03239B0C22685C
:1035E000013B936200235362054A13602046FFF7B4
:1035F000B1FA10BD640D00200800002083DE1B43DB
:10360000D8090020FEE7000000B591B00122069223
:103610004FF480330793002108910A9202220D9201
:103620000E934FF480230F9306A8FEF767FAF8B9BC
:103630000F2301930223029300210391049105912A
:1036400001A8FEF731FEC0B9FEF75AFF0D4BA3FBF0
:1036500000308009FEF78CF80420FEF79FF8002266
:1036600011464FF0FF30FEF727F811B05DF804FB6C
:1036700040F223110448FFF7C5FF40F23111024820
:10368000FFF7C0FFD34D6210C8A1000870B582B02B
:10369000FDF7D0FFFFF7B8FFFFF7E4FC00F09EFB5B
:1036A00000F0ACFAFFF790FFFFF78EFFA54CA64B9A
:1036B00023604FF48043A380A44BA3604FF40052D7
:1036C000A28123614FF48052A282A361A04D04F530
:1036D000057328686968AA6807C3AA891A80032342
:1036E0000093022340220C212046FFF7EBFEFCE171
:1036F000984800F0C3FF984B1B68DA6822F001027B
:10370000DA60964A15685A6A42F2107101FB052583
:10371000DA6842F00102DA60DA6822F00102DA6067
:103720008E4A11685A6A42F2107000FB0121DA6871
:1037300042F00102DA6005F5967201269142EBD360
:10374000012CD5D0864C01224FF480412046FEF753
:10375000BBF94FF480412046FEF7A2F9012869D158
:103760007D4B1B68DA6822F00102DA607B4A14683C
:103770005A6A42F2107101FB0424DA6842F0010235
:10378000DA60DA6822F00102DA60744A1268596A73
:1037900042F2107000FB0212D96841F00101D960B9
:1037A00004F5C8618A42ECD36D4C00224FF480418D
:1037B0002046FEF789F94FF480412046FEF770F964
:1037C000002866D14FF400416548FEF769F90128E9
:1037D00000F08E80604B1B68DA6822F00102DA602C
:1037E0005E4A14685A6A42F2107101FB0424DA68D6
:1037F00042F00102DA604FF400415948FEF750F9F7
:10380000002840F0B780544B1A68D36823F00103B6
:10381000D360524B1B68516A42F2107000FB0313D5
:10382000D16841F00101D1601B1B4E4A9342E2D99D
:103830000123A0E04C4800F021FF00224FF480411A
:103840002046FEF741F9444B1B68DA6822F001027A
:10385000DA60424A14685A6A42F2107101FB042489
:10386000DA6842F00102DA60DA6822F00102DA6016
:103870003A4A1268596A42F2107000FB0212D96883
:1038800041F00101D96004F596718A42ECD3022619
:1038900066E7364800F0F2FE00224FF480412046F1
:1038A000FEF712F92C4B1B68DA6822F00102DA608D
:1038B0002A4A14685A6A42F2107101FB0424DA6839
:1038C00042F00102DA60DA6822F00102DA60234A8B
:1038D0001268596A42F2107000FB0212D96841F076
:1038E0000101D96004F596718A42ECD3032669E799
:1038F0001F4800F0C3FE184B1B68DA6822F0010273
:10390000DA60164A14685A6A42F2107101FB042404
:10391000DA6842F00102DA60DA6822F00102DA6065
:103920000E4A1268596A42F2107000FB0212D968FE
:1039300041F00101D96004F596718A42ECD3042666
:1039400048E700BFDC0A0020000D0020000400480A
:1039500040A00008D8A10008640D0020D80900206C
:10396000000C004820A1070004A2000834A20008AF
:1039700060A200080023002B2ED1924B1B68DA684E
:1039800022F00102DA60904A15685A6A42F2107118
:1039900001FB0525DA6842F00102DA604FF40041CC
:1039A0008A48FEF77DF801283FD1864B1A68D36814
:1039B00023F00103D360844B1B68516A42F21070FC
:1039C00000FB0313D16841F00101D1601B1B804A49
:1039D0009342E3D9012329E07E4800F04FFE794B62
:1039E0001B68DA6822F00102DA60774A15685A6AC1
:1039F00042F2107101FB0525DA6842F00102DA603B
:103A0000DA6822F00102DA606F4A1268596A42F2FB
:103A1000107000FB0212D96841F00101D96005F570
:103A200096718A42ECD30526A7E70023002B6CD1C0
:103A3000644B1B68DA6822F00102DA60624A11689E
:103A40005A6A42F2107000FB0121DA6842F001026A
:103A5000DA60491B604DA5FB0131890940F257141A
:103A600004FB01F45D4BA3FB04342409B4F5FA7F95
:103A700074D8002E00F09B803346594A01215948E2
:103A8000FFF73BFC4F4B1B68DA6822F00102DA605B
:103A90004D4A14685A6A42F2107101FB0424DA6834
:103AA00042F00102DA60DA6822F00102DA60464A86
:103AB0001268596A42F2107000FB0212D96841F094
:103AC0000101D96004F6B8318A42ECD3454C009428
:103AD0000023532219461846FFF7B8FB234604F586
:103AE000057200210846FFF7BCFB3E4A134602F56B
:103AF000057200210846FFF7B4FB4FF480413348BC
:103B0000FDF7CEFF044600261AE6374800F0B6FD62
:103B10002C4B1B68DA6822F00102DA602A4A14682A
:103B20005A6A42F2107101FB0424DA6842F0010281
:103B3000DA60DA6822F00102DA60234A1268596A10
:103B400042F2107000FB0212D96841F00101D96005
:103B500004F596718A42ECD3062669E7234800F003
:103B60002BFD184B1B68DA6822F00102DA60164A56
:103B700014685A6A42F2107101FB0424DA6842F0B8
:103B80000102DA60DA6822F00102DA600E4A126895
:103B9000596A42F2107000FB0212D96841F001012B
:103BA000D96004F596718A42ECD3072664E7224671
:103BB0000F4800F001FD23460E4A01210948FFF796
:103BC0009CFB5FE7640D0020D8090020000C004832
:103BD00020A1070080A20008D34D6210CDCCCCCC30
:103BE00048A30008DC0A0020ACA20008F0A20008EC
:103BF00018A3000838A300087047000008B5114852
:103C0000114B03604FF482734360002383604FF4D1
:103C1000E062C260036143614FF40072826110226E
:103C2000C2610362436283620722C26203630823A4
:103C30004363FEF739FD00B908BD47210348FFF78C
:103C4000E1FCF9E7000D00200038004054A3000813
:103C50000268164B9A4200D07047F0B587B003F562
:103C6000EC33DA6942F48042DA61DB6903F48043C1
:103C70000093009B4FF400730193022702970026E4
:103C80000396032504950524059401A90848FDF72A
:103C9000A9FD4FF400430193029703960495059400
:103CA00001A90448FDF79EFD07B0F0BD00380040B3
:103CB000001400480004004800B583B0214B9A6905
:103CC00042F001029A619A6902F001020092009AA0
:103CD000DA6942F08052DA61DB6903F080530193C4
:103CE000019B0320FDF7CAFC002211466FF00B0078
:103CF000FDF7E2FC002211466FF00A00FDF7DCFC44
:103D0000002211466FF00900FDF7D6FC0022114693
:103D10006FF00400FDF7D0FC002211466FF00300A5
:103D2000FDF7CAFC002211466FF00100FDF7C4FC4C
:103D3000002211464FF0FF30FDF7BEFC03B05DF8E6
:103D400004FB00BF001002407047FEE7FEE7FEE7FD
:103D5000FEE770477047704708B5FDF77DFCFDF73B
:103D60003CFD08BD08B50248FEF736FF08BD00BFA0
:103D7000640D00201549D1F8883043F47003C1F870
:103D80008830134B1A6842F001021A605868114AD1
:103D900002405A601A6822F0847222F480321A605B
:103DA0001A6822F480221A605A6822F4FE025A60CD
:103DB000DA6A22F00F02DA62186B074A02401A63CD
:103DC00000229A604FF000638B60704700ED00E0C6
:103DD000001002400CC07FF8CCFC00FF00B585B09D
:103DE0001148124B03603F2343600023836042F27B
:103DF0001072C2608361FFF719F850B90023019374
:103E0000039301A90848FFF781F838B905B05DF8B8
:103E100004FB3D210648FFF7F5FBEFE7442104488A
:103E2000FFF7F0FBF2E700BF640D00200010004038
:103E300064A3000802680E4B9A4200D0704700B598
:103E400083B003F50033DA6942F01002DA61DB690E
:103E500003F010030193019B002211463620FDF769
:103E60002BFC3620FDF76EFC03B05DF804FB00BFB1
:103E700000100040DFF834D0002103E00C4B5B5809
:103E8000435004310B480C4B42189A42F6D30B4A6C
:103E900002E0002342F8043B094B9A42F9D3FFF7B2
:103EA00069FFFDF71BF9FFF7F1FBFEE700A000201B
:103EB00030A6000800000020BC090020BC0900203A
:103EC000A80D0020FEE70000014B1868704700BFF6
:103ED0000C00002010B5002304468181C281C0E996
:103EE000003383604366C0E90433836119460822C6
:103EF0005C30FDF717F907480749084A084BE362A9
:103F0000C4E90740C4E9091204F15800BDE81040B3
:103F1000FDF77CB9B1460008D546000811470008F6
:103F200031470008014900F03BB800BFE16D0008CF
:103F300010B504461248FDF76DF9A26BD2B904F52D
:103F40003B731048C4F8E8320321C4F8E022E06370
:103F5000C4F8E41260680421FFF7BCFF01220921C4
:103F6000A068FFF7B7FF02221221E068FFF7B2FF57
:103F70000123A3630248BDE81040FDF74DB900BF1F
:103F8000C00A0020253F00080148FDF743B900BFE3
:103F9000D40A00200148FDF73FB900BFD40A002031
:103FA0002DE9F84310F538771FD0884606464FF0C4
:103FB0000009D7E90154013D11D4A389012B05F172
:103FC000FF352146304606D9B4F90E30013302D010
:103FD000C04749EA00096B1C04F16804EDD13F6851
:103FE000002FE6D14846BDE8F883B9464846BDE80B
:103FF000F88300BF044B054A1B685B6B002B08BFAE
:10400000134693F8280170470C000020400400205C
:10401000044B054A1B685B6B002B08BF1346D3F8A3
:10402000EC0070470C000020400400202DE9F04F08
:1040300001F10B05162D83B0064623D8102900F296
:10404000B98000F0ADFA102518230220C54F3B447B
:10405000A3F108025C68944200F06681636823F073
:1040600003032344D4E902515A68E96042F0010293
:104070008D6030465A6000F099FA0834204603B04B
:10408000BDE8F08F35F0070500F19480A94200F2F9
:10409000918000F085FAB5F5FC7FC0F083816B0A52
:1040A00000F08F80042B00F24681AB0903F1390048
:1040B00003F1380CC300AB4F3B44A3F108015C682B
:1040C000A14206D10CE0002A80F21D81E468A142E1
:1040D00006D0636823F003035A1B0F2AF3DD604602
:1040E0003C69DFF894C2644571D0636823F0030330
:1040F0005A1B0F2A00F34481002AC7E904CC80F23E
:104100002681B3F5007F80F06981DB08591C7A684D
:1041100057F83180C4F808804FF0010E9B100EFA5A
:1041200003F307EBC10E1343AEF10802E2607B60BC
:1041300047F83140C8F80C408210012494409C425A
:104140004BD81C4206D120F0030064001C4200F151
:104150000400FAD007EBC009CE468046DEF80C30EA
:104160009E4507D122E1002A80F22981DB689E4525
:1041700000F01C81596821F003014A1B0F2AF2DD6F
:10418000D3E9028E5C1945F001055D6042F001053E
:10419000C8F80CE03046CEF80880C7E90444C4E90A
:1041A00002CC65605A50019300F000FA019B03F1C4
:1041B000080463E700240C232046336003B0BDE805
:1041C000F08F4FF4007340204FF03F0C73E77B6893
:1041D0008210012494409C42B3D9BC68636823F0E8
:1041E0000309A94503D3A9EB05030F2B7BDC5E4B29
:1041F000DFF888A11A68DAF80030013305EB02080D
:1042000000F0488108F5805808F10F0828F47F680D
:1042100028F00F084146304600F038FAB0F1FF3F71
:10422000834600F0048104EB0900584500F2FD804C
:104230004E4A13684344136000F04D81DAF80010D1
:1042400001311BBFABEB00001B18CAF800B01360B4
:104250001BF0070300F03481C3F10801C3F580535C
:104260008B440833D844C8F30B08A3EB0808414635
:104270003046019200F00AFA431C019A00F0468190
:10428000A0EB0B01414441F001011368C7F808B0ED
:104290004344BC42CBF80410136015D0B9F10F0FA2
:1042A00040F230816068A9F10C0121F0070100F0B3
:1042B000010004EB010C08434FF0050E0F2960606C
:1042C000CCE901EE00F23A81294A2A481168BC681B
:1042D0008B42016888BF136062688B4222F0030240
:1042E00088BF0360A7E0621943F0010345F00105B0
:1042F00065603046BA60536000F058F908342046D3
:1043000003B0BDE8F08F2344E1685A68A56842F025
:104310000102E96030468D605A6000F047F90834C8
:10432000204603B0BDE8F08FDC68A34208BF02302E
:104330003FF4D6AE92E6142B71D9542B00F2AD8027
:104340002B0B03F16F0003F16E0CC300B3E62344A3
:1043500030465A6842F001025A60083400F026F9EB
:104360008CE600BFAC050020B00A0020800A0020C7
:10437000A80A0020AC0A0020B4050020B4090020DF
:10438000611945F0010E42F00105C4F804E0304621
:10439000C7E90411C1E902CC4D60E25000F006F912
:1043A00008346BE6E80805F108034FE608F1010858
:1043B00018F0030F0EF1080E7FF4D0AE52E019444E
:1043C0001C464A68DB6854F8085F42F001024A6004
:1043D0003046EB609D6000F0E9F84FE65A0A042A87
:1043E00035D9142A6FD802F15C01C9005B3207EBA2
:1043F000010E7958AEF1080E8E4558D04A6822F069
:1044000003029A4202D989688E45F7D1D1F80CE0AF
:104410007B68C4E9021ECEF80840CC608CE603F14C
:104420005C0003F15B0CC30045E6BC4272D0BC6883
:10443000626822F003029542A2EB050302D80F2B1B
:104440003FF751AF304600F0B1F8002416E69A0964
:1044500002F13901C9003832C9E7D9F8009099450D
:1044600040F0838010F0030FA9F1080300F1FF3042
:10447000F3D17B6823EA04037B6064009C423FF62F
:10448000ACAE1CB9A9E6640008F104081C42FAD0DD
:1044900040465FE608F11008BCE6B3F5AA7F26D8CF
:1044A000EB0B03F1780003F1770CC30003E67B68A4
:1044B00092104FF0010808FA02F213437B60A8E75C
:1044C0004FF48053CEE6542A29D81A0B02F16F011B
:1044D000C9006E328BE7C0F30B0100297FF4AEAE4A
:1044E00009EB0802B96842F001024A60ECE640F2CA
:1044F000545293421CD8AB0C03F17D0003F17C0CA9
:10450000C300D8E50123CBF804309BE701214FF02D
:104510000008BAE6164A1368434413608EE6B2F503
:10452000AA7F14D8DA0B02F17801C90077325EE76E
:104530004FF47E737F204FF07E0CBCE504F1080140
:104540003046019202F0DCFD019A1368BCE640F2AD
:1045500054518A4205D89A0C02F17D01C9007C327F
:1045600045E74FF47E717E2241E77B6885E700BF17
:10457000800A002082B049B15AB16BB113780B6048
:104580001278101C18BF012002B0704701A9002A40
:10459000F3D1104602B070476FF00100F4E700BF9E
:1045A0000148FCF737BE00BFC40A00200148FCF7F1
:1045B00033BE00BFC40A00200FB400B5074983B062
:1045C00004AB086853F8042B8168019300F0B4F839
:1045D00003B05DF804EB04B0704700BF0C0000208E
:1045E00070B5054688B008460C46FBF709FE224A1E
:1045F000AB6B04940126441C04A906920222039486
:104600000590AC680796CDE901121BB3616EB4F951
:104610000C30CE079AB201D4900525D5910406D46A
:10462000626E43F4005322F40052A381626628466E
:1046300001AA214602F058FE636E00280CBF0A252D
:104640004FF0FF35DA0702D4A3899B0506D528462B
:1046500008B070BD2846FFF76BFCD7E7A06DFCF7EC
:10466000DBFD284608B070BDA06DFCF7D3FDB4F9A2
:104670000C309AB2D2E700BF80A30008024B01467B
:104680001868FFF7ADBF00BF0C00002038B5074C1D
:104690000023054608462360FCF732FF431C00D088
:1046A00038BD2368002BFBD02B6038BDA40D002043
:1046B00010B50C46B1F90E1003F09EFB002803DB89
:1046C000236D0344236510BDA38923F48053A38184
:1046D00010BD00BF2DE9F0411646B1F90C201F4670
:1046E000D3050C460546B1F90E1007D5002202236A
:1046F00002F086FFB4F90C20B4F90E1022F48052B7
:10470000A2813B4632462846BDE8F04101F032BB6B
:1047100010B50C46B1F90E1002F072FFA389421CCD
:104720000EBF23F4805343F480532065A38110BD52
:10473000B1F90E1001F09ABB2DE9F04FBFB01C4645
:10474000884692460546069002F04CFF0368109397
:104750001846FBF755FD09940F901DB1AB6B002B6C
:1047600000F00081D8F86410B8F90C20CD0793B29E
:1047700002D4980540F1438199040AD4D8F8641012
:1047800042F4005321F40051A8F80C30C8F864102A
:104790009BB21A0740F1B080D8F81020002A00F030
:1047A000AB8003F01A020A2A00F0C2809FEDA07BC2
:1047B00000238DED0C7B0E93CDE9223311931493DE
:1047C00005932EAB21939946C3469AF80030002BEF
:1047D00000F08382252B544602D11EE0252B03D006
:1047E00014F8013F002BF9D1A4EB0A058DB1DDE9E6
:1047F000223201332A44072BC9F800A0C9F804501B
:10480000CDE9223200F3DA8009F10809059B2B4437
:1048100005932378002B00F0608200231A468DF860
:10482000673019460793984666784FF0FF3304F1D6
:10483000010A04930AF1010AA6F12003582B00F2A1
:10484000FC83DFE813F0D102FA03FA03D902FA037A
:10485000FA03FA03FA03FA03FA0330033C03FA03F8
:10486000D0039E03FA036402E400E400E400E400E1
:10487000E400E400E400E400E400FA03FA03FA03CD
:10488000FA03FA03FA03FA03FA03FA03FA03B80382
:104890004103FA034103FA03FA03FA03FA03990303
:1048A000FA03FA039300FA03FA03FA03FA03FA038A
:1048B000A700FA03FA036902FA03FA03FA03FA03F8
:1048C000FA03FA03FA03FA03FA03FA03BE02F90041
:1048D0004103410341035202F900FA03FA0357026C
:1048E000FA031F03950084039403FA03FC02FA03FE
:1048F000A900FA03FA03E5024146069801F050FACE
:1049000078B1D8F86430DB0704D4B8F80C309F05D0
:1049100040F18B834FF0FF33059305983FB0BDE81E
:10492000F08FB8F80C3003F01A020A2A7FF43EAF79
:10493000B8F90E20002AFFF639AFD8F86420D60760
:1049400005D49D0503D4D8F85800FCF765FC234630
:1049500052464146069801F075F9059005983FB01A
:10496000BDE8F08F0698FFF7E3FAFBE648F0100881
:1049700018F0200340F03C83099A52F8044B099246
:1049800018F0100204D118F040031CBF1346A4B263
:104990000025E2E148F0100818F0200F40F03383C2
:1049A000099B18F0100F53F8044B099303D118F02A
:1049B000400F18BFA4B200250123CEE121AA594619
:1049C000069804F03FFE50B90DF1B8091EE721AA80
:1049D0005946069804F036FE002800F07581D84646
:1049E000D8F86420B8F80C30D10702D49A0540F109
:1049F00015835B068ED405983FB0BDE8F08FD8F8DC
:104A00005800FCF707FCB8F90C2093B2B4E6A6F105
:104A1000300300201AF8016B00EB800003EB40002C
:104A2000A6F13003092BF5D9079005E7AFF3008015
:104A30000000000000000000002A41F0EA8018F0A9
:104A4000200F00F0C182099C073424F00703D3E94A
:104A5000004503F108020992002C75F10003C0F231
:104A6000D1849DF86770049B013300F02F840123EB
:104A700028F08002029254EA050240F07781049AFD
:104A8000002A40F07B85002B40F0878418F001035A
:104A9000089300F0A0853EAB1A46302302F8413D52
:104AA0000A92049B089A9342B8BF134603930023CB
:104AB0000B9317B1039B01330393029B13F0020383
:104AC00002D0039A02320392029A239C12F08408C5
:104AD00042D1079A0399551A002D3DDD102D229AD7
:104AE0002CDD48462146A94610271D46069C034654
:104AF00006E0A9F11009B9F1100F03F1080318DD60
:104B00000132C0481031072ACDE92221C3E900074C
:104B1000EFDD21AA5946204604F094FD00287FF4D9
:104B20005EAFA9F11009B9F1100FDDE922212EAB1A
:104B3000E6DC18460C462B464D4681460132B1490B
:104B40002C44072ACDE92224C9E9001500F3878403
:104B50009DF8677009F1080977B1229A0132013492
:104B60000DF167000121072ACDE92224C9E90001DE
:104B700000F3928309F108096BB1229B01330234DF
:104B80001AA90222072BCDE92234C9E9001200F349
:104B9000918309F10809B8F1800F00F0D082049BDD
:104BA000089A9D1A002D33DD102D229ADFF85C82C1
:104BB00023DD234610274446DDF8188004E0103D2D
:104BC000102D09F1080916DD01321033072ACDE94D
:104BD0002223C9E90047F2DD21AA5946404604F0E4
:104BE00031FD00287FF4FBAE103D102DDDE92223BE
:104BF0000DF1B809E8DCA0461C4601322C44072A16
:104C0000CDE92224C9E9008500F3728309F108097E
:104C1000029BDD0500F12782229B0A9AC9F8002039
:104C2000089AC9F8042001331444072B23942293D3
:104C300000F30F8309F10809029B580739D5079B38
:104C4000039A9D1A002D34DD102D229B1FDD1026A6
:104C5000069F04E0103D102D09F1080917DD01330E
:104C6000684A1034072BCDE92234C9E90026F1DD6A
:104C700021AA5946384604F0E5FC00287FF4AFAE7F
:104C8000103D102DDDE922340DF1B809E7DC0133C8
:104C90005C4A2C44072BCDE92234C9E9002508DD04
:104CA00021AA5946069804F0CDFC00287FF497AE5F
:104CB000239C059B079A03998A42ACBF9B185B18FB
:104CC0000593002C7FF483AE002322939AF80030E2
:104CD0000DF1B809002B7FF47DAD239BD846002B46
:104CE00040F0BA86002322937AE648F040089AF80A
:104CF00000609FE59AF800606C2E03BF9AF801608F
:104D000048F020080AF1010A48F0100892E548F03E
:104D100080089AF800608DE5002A40F07E873A4BC3
:104D2000119318F0200F7BD0099C073424F007035F
:104D3000D3E9004503F10802099218F0010F00F0D1
:104D4000D58254EA050300F0D18230238DF8683013
:104D50008DF8696048F002080223049A00270132A6
:104D60008DF867707FF484AECDF80880012B00F0D9
:104D7000AF82022B00F079822EA900E01146E208F2
:104D800042EA4572E80804F007030546144630334A
:104D900054EA050001F8013C01F1FF32EED102981E
:104DA0000A92C00740F17482302B00F055850A9AB0
:104DB0003023023902F8013C2EAB5B1A08930A91AA
:104DC0006FE6099900230A688DF867301F468DF851
:104DD000902001230A1DCDE90283CDE9083224ABDE
:104DE00004970B970A9368E69AF8006000297FF40D
:104DF00021AD012220211DE548F001089AF800604C
:104E000018E500BFC8A3000894A30008D8A30008B1
:104E1000002A40F00A87B64B119318F0200F83D177
:104E2000099B18F0100F53F8044B099340F0F282DD
:104E300018F0400F00F0EE82A4B200257DE7099A39
:104E400013680A9300258DF86750141D002B00F09D
:104E5000E684049A531C00F0408529460A98FBF723
:104E60003FFA002800F0AE840A9B0495C31A089309
:104E70000994CDF8088023EAE37303930B959DF81A
:104E8000677016E6002A40F0BC86099A18F0200FD9
:104E900052F8043B099200F0A283059A1046D117FC
:104EA000C3E9000191E4099B9AF800601868079033
:104EB000002803F10403C0F25D840993BAE49AF870
:104EC000006001222B21B5E4002A40F09E86099C57
:104ED000073424F0070494ED007B52EC171B22F0FA
:104EE000004313938DED127A0834DDE912014FF07F
:104EF000FF32804B09948DED0C7BFBF731FF0028CE
:104F000040F07C834FF0FF327A4BDDE91201FBF772
:104F100009FF002840F0728300220023DDE90C0124
:104F2000FBF7F6FE002840F029849DF86770724A6E
:104F3000724B0321002028F08004472ED8BF1A4668
:104F4000CDE9031002940A9208910B90B1E5099AF9
:104F5000674B14681193043247F63003ADF868309C
:104F600048F002080992002502237826F5E648F069
:104F700020089AF800605DE448F008089AF800609C
:104F800058E49AF800602A2E0AF1010000F00D861C
:104F9000A6F13003092B824600F2078500201AF89B
:104FA000016B00EB800003EB4000A6F13003092BFE
:104FB000F5D9049040E4002A40F01F8648F010081C
:104FC00018F0200F7FF43FAD099B18F0100F53F835
:104FD000044B099340F0108218F0400F00F00C824F
:104FE00024B2E51738E59AF8006048F0040821E497
:104FF000099C073424F0070303F10802D3E90045B4
:1050000009920023A9E6099C073424F0070303F161
:105010000802D3E90045099201239EE6D8F858001A
:10502000FCF7FAF8B8F80C30E3E4D8F85800FCF7CD
:10503000F3F84FF0FF330593DDE4002A40F0F185EB
:10504000002E3FF44AAE002301221F468DF8673040
:1050500004930B9324AB03928DF89060CDF80880F5
:1050600008920A9329E5652E40F3A48000220023CC
:10507000DDE90C01FBF742FE002800F04581229B90
:105080001F4AC9F80020013301340122072BCDE962
:105090002234C9F8042000F3628309F108091B9B3C
:1050A0000E9A239C934203DB029BD8077FF5C4AD85
:1050B000229B109AC9F800200F9AC9F804200133E6
:1050C0001444072BCDE9223400F39D8309F108092C
:1050D0000E9B5D1E002D7FF7AFAD102D229ADFF8DD
:1050E000248040F3508247461026DDF8188011E0F6
:1050F000A8A30008FFFFEF7F88A3000884A300088F
:10510000C4A30008D8A3000809F10809103D102D18
:1051100040F3388201321034072ACDE92224C9E94C
:105120000076F1DD21AA5946404604F08BFA0028AA
:105130007FF455ACDDE922240DF1B809E6E7079BC1
:10514000039A9D1A002D7FF72AAD102D229ADFF8C1
:105150006C8823DD234610274446DDF8188004E0E0
:10516000103D102D09F1080916DD01321033072A10
:10517000CDE92223C9E90047F2DD21AA594640467C
:1051800004F060FA00287FF42AAC103D102DDDE910
:1051900022230DF1B809E8DCA0461C4601322C445C
:1051A000072ACDE92224C9E9008500F3968209F196
:1051B0000809F4E40E9A229B012A04F1010403F188
:1051C000010509F1080640F3278101230A9AC9F86D
:1051D0000020072DCDE92254C9F8043000F3B68130
:1051E0000F9B109A01351C44072DCDE92254C6E9C6
:1051F000002300F3B78108366B1C1F4604970E9FEF
:10520000089300220023DDE90C01013F06F10809A3
:10521000FBF774FD002840F0C6803C440A9B776091
:10522000049F23940133072F3360229700F30781F3
:1052300006F11003AA1C4E4604929946149A726015
:105240001444049A23941DAB072A229233607FF7FB
:10525000F3AC21AA5946069804F0F4F900287FF42B
:10526000BEAB239C0DF1B809E6E4DDF844C02EAADC
:10527000230904F00F0043EA057329091C460D4673
:105280001CF8003002F8013D54EA0503F0D10A92FF
:105290002EAB9B1A089304E421AA5946069815934D
:1052A00004F0D0F900287FF49AAB239C159B0DF1F4
:1052B000B80961E421AA5946069804F0C3F9002808
:1052C0007FF48DAB239C0DF1B80964E4CDF8088020
:1052D000002D08BF0A2C80F060813EAB303403F80B
:1052E000414D0A9301230893FFF7DBBB022334E50A
:1052F00021AA5946069804F0A5F900287FF46FAB5F
:10530000239C0DF1B80983E41B9B002B40F3F28131
:105310000B9B0E9A9342A8BF1346002B1D460EDD31
:10532000229B0A9AC9F8002001332C44072B2394AE
:10533000C9F80450229300F3F38209F108090B9B8A
:10534000002DA8BF5B1B002B1D4640F3A480102B33
:10535000229ADFF8688640F3738247461026DDF80C
:10536000188005E009F10809103D102D40F367820F
:1053700001321034072ACDE92224C9E90076F1DD93
:1053800021AA5946404604F05DF900287FF427AB76
:10539000DDE922240DF1B809E6E7049B08932EAB62
:1053A0000A93FFF77EBB002F7FF748AF102FDFF87F
:1053B0000C8640F3F58323464FF010094446089DC0
:1053C000DDF8188005E00836103F102F40F3068204
:1053D00001351033072DCDE92253C6E90049F2DD2E
:1053E00021AA5946404604F02DF900287FF4F7AA77
:1053F000DDE922532EAEE7E7E517002C75F1000337
:10540000BFF62FAB2D27644265EB45058DF867701D
:10541000FFF729BB002590E4029AD7073FF5D5AEE8
:1054200001220A99C9F80010072DCDE92254C9F8C4
:10543000042004DC0233049309F11009FEE621AADA
:105440005946069804F0FEF800287FF4C8AADDE962
:105450002234013304930DF1C0092EAEEEE621AAE9
:1054600059460698159304F0EDF800287FF4B7AA82
:105470009DF86770239C159B0DF1B809FFF76CBB75
:1054800021AA5946069804F0DDF800287FF4A7AA5F
:10549000239C0DF1B8091B9B0E9A934202DB029AE2
:1054A000D2070FD5229A1099C9F800100F99C9F8A0
:1054B000041001320C44072A2394229200F33C8208
:1054C00009F108090E9A0B98D31A151A9D42A8BF24
:1054D0001D46002D0FDD229A0A99C9F804500132A9
:1054E00001442C44072AC9F80010CDE9222400F316
:1054F000578109F10809002DACBF5D1B1D46002D29
:105500007FF79AAB102D229ADFF8B0843BDD474637
:105510001026DDF8188004E009F10809103D102D6F
:1055200030DD01321034072ACDE92224C9E90076A2
:10553000F2DD21AA5946404604F084F800287FF4A1
:105540004EAADDE922240DF1B809E7E721AA594660
:10555000069804F077F800287FF441AADDE9225488
:105560002EAE3DE621AA5946069804F06BF80028B5
:105570007FF435AADDE922542EAE3DE6012B7FF4FF
:10558000F8ABAAE6B84601322C44072ACDE922241A
:10559000C9E900857FF74EAB5BE62EAB9846204607
:1055A00029460A220023FBF719FC303208F8012DA6
:1055B0002046294600230A22FBF710FC04460D462C
:1055C00054EA0503EBD142462EAB9B1ACDF8288056
:1055D0000893FFF766BA2EAB0A93FFF762BA18F08A
:1055E000100F07D118F0400F04D0BDF814201A8016
:1055F000FFF7EBB8059A1A60FFF7E7B8DDE90C0191
:1056000002460B46FBF7ACFB002840F0AB82049B44
:105610005C1C26F0200700F0D280472F03D1002B1E
:1056200008BF012304930D9B48F48072002B029263
:10563000C0F29B819DED0C7B8DED167B00231593B5
:10564000662E00F09B81462E00F0F781452F00F07A
:10565000D8811FAA1CABCDE9003202211BAB049AF2
:1056600006989DED160B00F0A7FC672E0A9040F0FF
:10567000C28218F0010F00F0F5800A9B049A9C1872
:1056800000220023DDE91601FBF738FB002800F0BB
:10569000608123460A9A9B1A0E93472F1B9B0B93FC
:1056A00000F0E980662E40F0ED800B9B002B049B00
:1056B00040F36E82002B40F04B8218F0010F40F057
:1056C00047820B9B03930893159B002B40F010819E
:1056D00004939DF86770FFF7ECB921AA5946069824
:1056E00003F0B0FF00287FF47AA9239C0DF1B809DC
:1056F000FFF755BA229AAF49C9F8001001320134B8
:105700000121072ACDE92224C9F804103BDC09F164
:1057100008092BB90E9A1AB9029AD1077FF58CAAFB
:10572000229A1099C9F800100F99C9F80410013293
:105730000C44072A2394229200F3428109F10809BC
:10574000002BC0F293810E9B0A9901321C44072A58
:10575000CDE92224C9E900137FF76CAA79E521AAD3
:105760005946069803F06EFF00287FF438A90DF122
:10577000B80994E440420790099336E42D278DF848
:105780006770FFF7D4BB21AA5946069803F05AFF69
:1057900000287FF424A91B9B239C0DF1B809B8E7CE
:1057A00021AA5946069803F04DFF00287FF417A957
:1057B0001B9B0E9A239CD31A0DF1B8099BE6062376
:1057C000049330E7049B0393089304900994CDF865
:1057D00008800B909DF86770FFF76BB9A0461C46D8
:1057E0006B1C049306F10802049B22933C44072B94
:1057F0002394C6E900873FF722AE0133049302F1F8
:10580000080916461AE521AA5946069803F01AFF18
:1058100000287FF4E4A8239C0DF1B80958E4049B08
:105820000A9F0497062B28BF062303930893624B15
:105830000994CDF808800B970A93FFF73AB9B84658
:1058400001322C44072ACDE92224C9E900853FF71B
:1058500017AE09F108091EE60A9A2EAB9B1A0893A7
:10586000FFF71FB91B9A1F9B0B920A9A472FA3EBB6
:1058700002030E9306D10B9BDA1C02DB049A9A42B8
:105880003DDA023E0B9B8DF87460013B002B1B93AD
:10589000BDBF0B9BC3F101032D222B22092B8DF8D9
:1058A000752000F31481303330228DF877308DF875
:1058B00076201EAB1DAA9B1A0E9A1493012A13443C
:1058C000089340F35B81089B0F9A1344089323EAE3
:1058D000E373039300230B93F6E60A980495FAF713
:1058E0008FFCCDF80880CDE908040346FFF7C3BA62
:1058F0002D2700238DF867700493FFF7DBB80B9B0F
:105900000E998B426ADB18F0010F00F01B810B9B94
:105910000F9A1344089323EAE37303936726D3E6AD
:1059200021AA5946069803F08DFE00287FF457A857
:10593000239C0DF1B80902E521AA5946069803F007
:1059400081FE00287FF44BA81B9B239C0DF1B80916
:10595000B8E51F9BA342BFF49DAE30215A1C1F9295
:1059600019701F9B9C42F9D894E6DDE90C1202F1F4
:10597000004317932D231691159361E6049D069815
:105980001FAA1CABCDE9003203211BAB2A469DEDBB
:10599000160B00F011FB0A9044190A9B1B78302B60
:1059A00000F0C2801B9D2C446AE600230493FEF79E
:1059B00043BF00BFC4A30008BCA30008D8A30008CD
:1059C00021AA5946069803F03DFE00287FF407A857
:1059D0001B9BDDE922240DF1B809B1E6DDE90E32A9
:1059E00013440B9A0893002A06DC0B9B089AC3F118
:1059F00001031A441346089223EAE37303936726CC
:105A000062E6049B06985D1C1FA91CABCDE9003122
:105A10002A461BAB02219DED160B00F0CDFA0A9031
:105A2000472E40F0D58018F0010F00F0CA800A9B85
:105A3000462E03EB0504B0D022E6049D06981FAA6B
:105A40001CABCDE9003203211BAB2A469DED160BA2
:105A500000F0B2FA0A90EAE7069821AA594603F044
:105A6000F1FD00283FF43EA9FEF7BABF5D421033B6
:105A7000DFF8CC811FDA47461026DDF8188004E0F5
:105A800009F10809103D102D14DD01321034072AE8
:105A9000CDE92224C9E90076F2DD21AA5946404623
:105AA00003F0D0FD00287EF49AAFDDE922240DF149
:105AB000B809E7E7B84601322C44072ACDE9222489
:105AC000C9E9008500F3878009F108093BE60DF17B
:105AD00083042046574D00E01046A5FB0312D20870
:105AE00002EB8201A3EB410303F130011346092BC2
:105AF00000F8011C00F1FF32EEDC30330238D9B27D
:105B0000844202F8011C73D90DF17600134601E0BE
