:020000040800F2
:1000000000A0002055290008292800082B280008F6
:100010002D2800082F2800083128000800000000C3
:10002000000000000000000000000000332800086D
:10003000352800080000000037280008392800088B
:10004000A5290008A5290008A5290008A529000858
:10005000A5290008A5290008A5290008A529000848
:10006000A5290008A5290008A5290008A529000838
:10007000A5290008A5290008A5290008A529000828
:10008000A5290008A5290008A5290008A529000818
:10009000A5290008A5290008A5290008A529000808
:1000A000A5290008A5290008A5290008A5290008F8
:1000B000A5290008A5290008A5290008A5290008E8
:1000C000A5290008A5290008A5290008A5290008D8
:1000D000A5290008A5290008A5290008A5290008C8
:1000E000A5290008A5290008A5290008A5290008B8
:1000F000A5290008A5290008A5290008A5290008A8
:10010000000000000000000000000000A529000819
:10011000A5290008A529000845280008A5290008E8
:10012000A5290008A5290008A5290008A529000877
:10013000A5290008A5290008000000000000000013
:10014000A5290008A5290008A5290008000000002D
:10015000000000000000000000000000000000009F
:100160000000000000000000A5290008A5290008E3
:10017000A5290008000000000000000000000000A9
:0801800000000000A5290008A1
:1001900010B5054C237833B9044B13B10448AFF3C1
:1001A00000800123237010BDDC010020000000004E
:1001B0001C3D000808B5034B1BB103490348AFF3CE
:1001C000008008BD00000000E00100201C3D000888
:1001D00001F0FF01102A2BDB10F0070F08D010F8F8
:1001E000013B013A8B422DD010F0070F42B3F6D1FC
:1001F000F0B441EA012141EA014122F007047FF015
:1002000000070023F0E80256083C85EA010586EA6B
:10021000010685FA47F5A3FA87F586FA47F6A5FAA7
:1002200087F68EB9EED1F0BC01F0FF0102F00702B3
:1002300032B110F8013B013A83EA010313B1F8D15E
:100240000020704701387047002D06BF354603383F
:10025000073815F0010F07D1013015F4807F02BF78
:10026000013015F4C03F0130F0BC0138704700BFC9
:1002700010B504460E4B18784FF47A73B3FBF0F3C5
:100280000C4A1068B0FBF3F000F0C8F868B90F2C06
:1002900001D901200AE0002221464FF0FF3000F092
:1002A00061F8034B5C60002000E0012010BD00BF3E
:1002B000000000200800002008B5074A136843F03A
:1002C00010031360032000F02FF80020FFF7D0FF89
:1002D00002F062FA002008BD00200240034A1168C3
:1002E000034B1B780B441360704700BF08020020CB
:1002F00000000020014B1868704700BF0802002072
:1003000038B50446FFF7F6FF0546B4F1FF3F02D0CB
:10031000044B1B781C44FFF7EDFF401BA042FAD3AF
:1003200038BD00BF0000002010B50446C31E042BDA
:100330000FD80A4AD36823F4E0631B041B0C240281
:1003400004F4E064234343F0BF6343F40033D36019
:1003500010BDBC21024802F0BFF9EAE700ED00E061
:100360007C43000870B505460C4616460F2A25D872
:100370000F2C28D81B4BDB68C3F30223C3F1070201
:10038000042A28BF0422191D062921D9033B4FF056
:10039000FF3101FA02F224EA02049C4001FA03F35D
:1003A00026EA03063443002D14DB2401E4B205F1F0
:1003B000604505F5614585F8004370BDD4210A48C4
:1003C00002F08AF9D4E7D521074802F085F9D1E790
:1003D0000023DCE705F00F052401E4B2034B5C5574
:1003E000EBE700BF00ED00E07C43000814ED00E007
:1003F00010B5041E08DB04F01F02640901239340BA
:10040000044A42F8243010BDE821034802F064F9A0
:10041000F1E700BF00E100E07C4300080138B0F1E3
:10042000807F0AD2064B5860064AF02182F82310DA
:100430000020986007221A6070470120704700BFB3
:1004400010E000E000ED00E010B50446042800D004
:1004500038B9042C0BD0094A136823F00403136045
:1004600010BD40F2E111064802F036F9F1E7034A07
:10047000136843F004031360F2E700BF10E000E0EC
:100480007C430008704708B5FFF7FCFF08BD00007B
:100490002DE9F04782B006460C46B0F1904F16D0D9
:1004A000A44B984213D003F5806398420FD003F514
:1004B000806398420BD003F58063984207D003F520
:1004C0008063984203D0C3219B4802F005F923685A
:1004D0009AB212B11B0C1B041BB1C421964802F046
:1004E000FBF86368012B1ED9112B1CD0022B1AD0EC
:1004F000122B18D0914A934215D002F580129342E4
:1005000011D002F5801293420DD0A2F5F812934259
:1005100009D002F58012934205D002F58012934271
:1005200001D0032B04D1A368022B06D800254AE092
:10053000C521814802F0D0F8F5E7C6217E4802F0D7
:10054000CBF8F3E7D6217C4802F0C6F86DE0EA214B
:10055000794802F0C1F898E0042300E000238B40C2
:1005600003430232764941F82230764B1A68FB4346
:1005700003EA0201606810F4803F01D047EA0201FB
:10058000704A1160526803EA0201606810F4003F8B
:1005900001D047EA02016B4A5160926803EA020106
:1005A000606810F4801F01D047EA0201654A91603B
:1005B000D2681340616811F4001F01D047EA0203BA
:1005C000604AD3600135276837FA05F300F0AF8041
:1005D0004FF0010808FA05F818EA0707F2D0636837
:1005E000022B01D0122B30D1B6F1904F16D0514BC7
:1005F0009E4213D003F580639E420FD003F58063C3
:100600009E420BD003F580639E4207D003F58063C2
:100610009E4203D0D521484802F05EF823690C2B96
:1006200003D90E2B01D00F2B8CD1EA08083256F8D3
:10063000220005F0070399000F238B4020EA0300F6
:1006400023698B40034346F8223032684FEA450A5B
:100650004FF0030909FA0AF96FEA090909EA0202E7
:10066000636803F0030303FA0AF313433360636818
:100670005A1E012A03D9112B01D0122B17D1E3687E
:10068000012B02D9032B7FF462AFB26809EA0202A0
:10069000E36803FA0AF31343B360736823EA0808B4
:1006A0006368C3F30013AB4043EA08037360F36865
:1006B00009EA0309A36803FA0AF343EA0903F360AA
:1006C000636813F0805F3FF47DAF1F4B9A6942F07F
:1006D00001029A619B6903F001030193019BAA083F
:1006E000911C174B53F8210005F0030399000F23C9
:1006F0008B4020EA0300B6F1904F3FF42FAF0D4B33
:100700009E420ED003F580639E420CD003F58063B9
:100710009E420AD003F580639E423FF41DAF05233D
:100720001DE701231BE7022319E7032317E702B0A4
:10073000BDE8F08700040048B8430008000011102D
:1007400000000140000401400010024038B5054699
:100750000C4621B12B691C4207D1002038BD4FF453
:10076000C871034801F0B8FFF4E70120F6E700BFC5
:10077000B843000870B5054614460E4621B1012C59
:1007800008D86CB9AE6270BD4FF4D871054801F05D
:10079000A3FFF4E740F2B111024801F09DFFF0E73A
:1007A000AE61F0E7B8430008002800F08A8370B516
:1007B00082B00446036813B113F00F0F2BD02368E7
:1007C00013F0010F4FD063682BB1B3F5803F02D017
:1007D000B3F5A02F25D1B44B5B6803F00C03042BB9
:1007E0002AD0B14B5B6803F00C03082B1FD0636861
:1007F000B3F5803F7CD0002B40F0A68003F180430E
:1008000003F504331A6822F480321A601A6822F45D
:1008100080221A6071E040F25711A44801F05CFF99
:10082000CDE740F25D11A14801F056FFD3E79E4BA2
:100830005B6813F4803FDAD04FF4003393FAA3F3EC
:10084000994B19684FF4003393FAA3F3B3FA83F387
:1008500003F01F03012202FA03F30B4203D0636883
:10086000002B00F03083236813F0020F00F0DA80D1
:100870002369012B00F2A08063691F2B00F2A28084
:10088000894B5B6813F00C0F00F0A880864B5B6807
:1008900003F00C03082B00F09B802369002B00F071
:1008A0000981012292FAA2F3B3FA83F303F184538C
:1008B00003F584139B001A60FFF71CFD0546022315
:1008C00093FAA3F3784B1968022393FAA3F3B3FACC
:1008D00083F303F01F03012202FA03F30B4240F0FB
:1008E000D380FFF707FD401B0228E8D90320F1E27F
:1008F0006D4A136843F4803313606B4AD36A23F064
:100900000F03A1680B43D3626368002B36D0FFF757
:10091000F1FC05464FF4003393FAA3F3624B1968D8
:100920004FF4003393FAA3F3B3FA83F303F01F03F6
:10093000012202FA03F30B4295D1FFF7DBFC401BC7
:100940006428E7D90320C5E2B3F5A02F09D0564BA0
:100950001A6822F480321A601A6822F480221A601F
:10096000CBE703F18043A3F53C331A6842F48022BD
:100970001A601A6842F480321A60BEE7FFF7BAFCC8
:1009800005464FF4003393FAA3F3474B19684FF42D
:10099000003393FAA3F3B3FA83F303F01F030122A6
:1009A00002FA03F30B423FF45EAFFFF7A3FC401BD8
:1009B0006428E6D903208DE240F295113B4801F00E
:1009C0008BFE59E74FF4CB71384801F085FE57E7AD
:1009D000354B5B6813F4803F7FF45FAF022393FADB
:1009E000A3F3314B1968022393FAA3F3B3FA83F309
:1009F00003F01F03012202FA03F30B4204D0236920
:100A0000934201D0012065E22748036823F0F803F0
:100A10006169F82292FAA2F2B2FA82F201FA02F2C3
:100A200013430360236813F0080F00F09880A36954
:100A3000012B66D8A369002B69D0012191FAA1F29C
:100A4000B2FA82F21A4B13449B001960FFF752FC72
:100A50000546022393FAA3F293FAA3F293FAA3F2C0
:100A6000114A516A93FAA3F3B3FA83F303F01F0315
:100A7000012202FA03F30B4271D1FFF73BFC401B4A
:100A80000228E6D9032025E20748036823F0F8038B
:100A90006169F82292FAA2F2B2FA82F201FA02F243
:100AA00013430360BEE700BF00100240F443000898
:100AB00020819010012393FAA3F3B3FA83F303F197
:100AC000845303F584139B0000221A60FFF712FC85
:100AD0000546022393FAA3F3B94B1968022393FA4C
:100AE000A3F3B3FA83F303F01F03012202FA03F323
:100AF0000B4297D0FFF7FEFB401B0228E9D90320E9
:100B0000E8E14FF4EB71AF4801F0E6FD92E7012216
:100B100092FAA2F2B2FA82F2AB4B13449B0000228B
:100B20001A60FFF7E7FB0546022393FAA3F293FA54
:100B3000A3F293FAA3F2A24A516A93FAA3F3B3FA87
:100B400083F303F01F03012202FA03F30B4206D0E2
:100B5000FFF7D0FB401B0228E6D90320BAE1236847
:100B600013F0040F00F0C080E368012B01D9052BBE
:100B700026D1934BDB6913F0805F27D1904BDA6964
:100B800042F08052DA61DB6903F080530193019BEC
:100B900001258E4B1B6813F4807F19D0E368012B6D
:100BA0002AD0002B34D103F1804303F504331A6AB1
:100BB00022F001021A621A6A22F004021A6220E08C
:100BC00040F202217F4801F087FDD2E70025E0E7EF
:100BD0007E4A136843F480731360FFF78BFB06466D
:100BE0007A4B1B6813F4807FD8D1FFF783FB801BFF
:100BF0006428F5D903206DE1714A136A43F00103BB
:100C00001362E368002B41D0FFF774FB06462BE02C
:100C1000052B09D06A4B1A6A22F001021A621A6A7D
:100C200022F004021A62ECE7654B1A6A42F00402F1
:100C30001A621A6A42F001021A62E2E7604B196A0C
:100C4000022393FAA3F3B3FA83F303F01F03012201
:100C500002FA03F3194245D1FFF74CFB801B41F226
:100C60008833984200F23181022393FAA3F293FA77
:100C7000A3F3B3FA83F35B0943F00203022BDDD045
:100C8000022393FAA3F34E4B596AD9E7FFF732FBDD
:100C9000064615E04A4B196A022393FAA3F3B3FA06
:100CA00083F303F01F03012202FA03F3194219D060
:100CB000FFF720FB801B41F28833984200F2078146
:100CC000022393FAA3F293FAA3F3B3FA83F35B0933
:100CD00043F00203022BDDD0022393FAA3F3384B37
:100CE000596AD9E7002D73D1E369022B76D8E369FD
:100CF000002B00F0EE80324A526802F00C02082A03
:100D000000F0EA80022B40F0B080236A13B1B3F503
:100D1000803F69D1636A4BB3B3F5802F26D0B3F51A
:100D2000002F23D0B3F5402F20D0B3F5801F1DD066
:100D3000B3F5A01F1AD0B3F5C01F17D0B3F5E01F4D
:100D400014D0B3F5001F11D0B3F5101F0ED0B3F5BA
:100D5000201F0BD0B3F5301F08D0B3F5401F05D0CE
:100D6000B3F5501F02D0B3F5601F43D14FF080732D
:100D700093FAA3F3B3FA83F303F1845303F58413D3
:100D80009B0000221A60FFF7B5FA05464FF000738A
:100D900093FAA3F30A4B19684FF0007393FAA3F385
:100DA000B3FA83F303F01F03012202FA03F319429B
:100DB00026D0FFF79FFA401B0228E7D9032089E0DD
:100DC00000100240F44300082081901000700040A1
:100DD000424AD36923F08053D36185E740F246212C
:100DE0003F4801F079FC82E740F24F213C4801F096
:100DF00073FC8FE74FF41471394801F06DFCB5E7CF
:100E000036494B6823F47413626A206A0243134321
:100E10004B604FF0807393FAA3F3B3FA83F303F1BB
:100E2000845303F584139B0001221A60FFF762FAD2
:100E300004464FF0007393FAA3F3284B19684FF060
:100E4000007393FAA3F3B3FA83F303F01F030122B1
:100E500002FA03F3194206D1FFF74CFA001B0228ED
:100E6000E7D9032036E0002034E04FF0807393FA96
:100E7000A3F3B3FA83F303F1845303F584139B00C4
:100E800000221A60FFF736FA04464FF0007393FA17
:100E9000A3F3124B19684FF0007393FAA3F3B3FA5C
:100EA00083F303F01F03012202FA03F3194206D071
:100EB000FFF720FA001B0228E7D903200AE00020F0
:100EC00008E001207047012004E0032002E0032035
:100ED00000E0002002B070BD0120FBE700100240DE
:100EE000F443000810B4174B5C6804F00C03082BA3
:100EF00026D104F470124FF4701393FAA3F3B3FAEB
:100F000083F322FA03F31049C85C0E4BDB6A03F04B
:100F10000F030F2292FAA2F2B2FA82F2D3400B44EC
:100F20001A7C14F4803F05D1084B03FB00F05DF8F8
:100F3000044B7047064BB3FBF2F300FB03F0F6E7FC
:100F40000348F4E700100240343D000800093D006A
:100F500000127A00002800F01B8170B504460D468F
:100F6000036813F00F0F14D0022D18D88A4B1B689A
:100F700003F00703AB4218D2874A136823F0070334
:100F80002B431360136803F00703AB420DD001201D
:100F900070BD40F2BA21814801F09EFBE4E740F2C7
:100FA000BB217E4801F098FBE0E7236813F0020FB5
:100FB00018D0A3687BB1802B0DD0902B0BD0A02B29
:100FC00009D0B02B07D0C02B05D0D02B03D0E02BFD
:100FD00001D0F02B3ED1724A536823F0F003A16890
:100FE0000B435360236813F0010F69D06368022B31
:100FF00036D86368012B39D0022B4CD0022292FAEA
:10100000A2F2674A1068022292FAA2F2B2FA82F2BF
:1010100002F01F02012101FA02F2104200F0BA8030
:101020005F494A6822F0030213434B60FFF762F9FD
:1010300006465B4B5B6803F00C036268B3EB820F00
:101040003ED0FFF757F9801B41F288339842F0D920
:1010500003209DE740F2D221504801F03DFBBAE762
:1010600040F2D9214D4801F037FBC2E74FF400327E
:1010700092FAA2F24A4A10684FF4003292FAA2F2AF
:10108000B2FA82F202F01F02012101FA02F20242D8
:10109000C6D101207CE74FF0007292FAA2F2404ADA
:1010A00010684FF0007292FAA2F2B2FA82F202F0E5
:1010B0001F02012101FA02F21042B1D1012067E7BB
:1010C000354B1B6803F00703AB420CD9324A136857
:1010D00023F007032B431360136803F00703AB42AD
:1010E00001D0012054E7236813F0040F14D0E36803
:1010F0005BB1B3F5806F08D0B3F5A06F05D0B3F541
:10110000C06F02D0B3F5E06F36D1254A536823F49F
:10111000E063E1680B435360236813F0080F15D0B8
:1011200023695BB1B3F5806F08D0B3F5A06F05D02C
:10113000B3F5C06F02D0B3F5E06F23D1184A5368FE
:1011400023F46053216943EAC1035360FFF7CAFEE9
:10115000134B5B6803F0F003F02292FAA2F2B2FAAA
:1011600082F2D3400F4AD35CD8400F4B1860002066
:10117000FFF77EF800200BE740F21531074801F039
:10118000ABFAC2E74FF44771044801F0A5FAD5E77E
:10119000012070470120FBE600200240F4430008D4
:1011A000001002406443000808000020014B18684A
:1011B000704700BF08000020F8B505460F461646E8
:1011C0001C4639E02CB1FFF795F8069BC01AA042E7
:1011D00032D32A68536823F0E00353606B68B3F599
:1011E000827F0BD0AB6AB3F5005F14D0012385F882
:1011F0005D30002385F85C30032025E0AB68B3F553
:10120000004F02D0B3F5806FECD12A68136823F049
:1012100040031360E6E72A68136823F40053136061
:101220002A68136843F400531360DFE70123B342D5
:1012300009D0B4F1FF3FC5D12B689B6837EA03039F
:10124000F4D00023F3E70020F8BDF0B583B00746E3
:101250000C4615461E4602E0B6F1FF3F10D13A6833
:1012600093682340AB423FD0B4F5C06FF4D1002D5A
:10127000F2D1137BDBB28DF807309DF80730EBE736
:101280002EB1FFF737F8089BC01AB042E7D33A688F
:10129000536823F0E00353607B68B3F5827F0BD083
:1012A000BB6AB3F5005F14D0012387F85D300023DB
:1012B00087F85C30032018E0BB68B3F5004F02D01C
:1012C000B3F5806FECD13A68136823F040031360E4
:1012D000E6E73A68136823F4005313603A6813682A
:1012E00043F400531360DFE7002003B0F0BD70B596
:1012F00082B004460D46164600920B4600224FF47B
:10130000C051FFF7A2FFB8B900962B4600228021FA
:101310002046FFF751FFB8B900962B4600224FF444
:10132000C0612046FFF791FF034650B1236E43F0A2
:1013300020032366032304E0236E43F02003236687
:101340000323184602B070BD236E43F020032366CA
:101350000323F6E7002800F0148110B50446036863
:10136000894A93420CD0A2F57842934208D002F504
:101370008062934204D040F21B11844801F0ACF922
:1013800063681BB1B3F5827F40F0B380A36833B1CB
:10139000B3F5806F03D0B3F5004F40F0B080E36841
:1013A000B3F5706F24D0B3F5606F21D0B3F5506FF3
:1013B0001ED0B3F5406F1BD0B3F5306F18D0B3F526
:1013C000206F15D0B3F5106F12D0B3F5006F0FD0AA
:1013D000B3F5E06F0CD0B3F5C06F09D0B3F5A06FD3
:1013E00006D0B3F5806F03D0B3F5407F40F08D8019
:1013F000A369B3F5007F04D01BB1B3F5802F40F093
:101400008A80636B082B02D0002B40F08A80E3694E
:101410006BB1082B0BD0102B09D0182B07D0202B29
:1014200005D0282B03D0302B01D0382B7FD1236A55
:1014300013B1802B40F08180636A13B1102B40F010
:101440008280636A43B9236913B1022B40F0818023
:101450006369012B00F283800023A36294F85D305E
:10146000002B00F08280022384F85D30226813682C
:1014700023F040031360E368B3F5E06F7BD90022EB
:10148000B3F5706F04D0B3F5E06F01D00021A16215
:10149000216B21B9B3F5E06F70D902232363636830
:1014A000A1680B4321690B4361690B43A16901F4F6
:1014B00000710B43E1690B43216A0B43A06A216869
:1014C00003430B60638B03F00403616A0B43616B9E
:1014D0000B43E1680B43216813434B602268D369D7
:1014E00023F40063D36100202066012384F85D307B
:1014F00010BD4FF48E71254801F0EEF846E740F23A
:101500001D11224801F0E8F849E74FF48F711F4898
:1015100001F0E2F86CE740F21F111C4801F0DCF822
:101520006FE74FF49071194801F0D6F86FE740F279
:101530002111164801F0D0F879E74FF49171134862
:1015400001F0CAF878E740F22311104801F0C4F81E
:1015500077E74FF493710D4801F0BEF878E740F259
:1015600027110A4801F0B8F876E784F85C30204685
:1015700001F0DEF877E74FF4805281E7012323631F
:101580008DE70120704700BF003001402C44000867
:101590002DE9F04182B004460D4617461E46836889
:1015A00013B1B3F5004F19D194F85C30012B00F062
:1015B000D880012384F85C30FEF79CFE804694F8C6
:1015C0005D30DBB2012B0FD00220012384F85D30A7
:1015D000002384F85C3002B0BDE8F0814FF4FF7165
:1015E000614801F079F8DFE7002D00F0B080002FAE
:1015F00000F0AF80032384F85D3000232366A563E9
:10160000A787E7872364A4F84430A4F8463023650D
:10161000E364A368B3F5004F1BD023681A6812F087
:10162000400F03D11A6842F040021A60E368B3F534
:10163000E06F32D963681BB1E38F9BB2012B13D1EA
:10164000236835F8022BDA60E38F013B9BB2E38716
:101650000AE02268136843F480431360DDE7002E3C
:1016600079D0B6F1FF3F10D1E38F9BB2002B59D058
:1016700023689A6812F0020FF1D035F8022BDA6075
:10168000E38F013B9BB2E387EEE7FEF733FEA0EB6F
:101690000800B042E8D3032097E763681BB1E38FEB
:1016A0009BB2012B22D1E38F9BB2012B08D9236877
:1016B00035F8022BDA60E38F023B9BB2E38715E03B
:1016C00023682A781A73E38F013B9BB2E3870135C5
:1016D0000CE02A781A73E38F013B9BB2E387013554
:1016E00004E0002E39D0B6F1FF3F13D1E38F9BB257
:1016F000C3B123689A6812F0020FF2D0E28F92B25F
:10170000012AE6D935F8022BDA60E38F023B9BB25F
:10171000E387EBE7FEF7EEFDA0EB0800B042E5D370
:10172000032052E7424631462046FFF7E0FD08B16C
:1017300020232366A36833B901932368DA680192F2
:101740009B680193019B236E4BB900203DE701206C
:101750003BE7012039E7032037E7032035E7012085
:1017600033E7022037E700BF2C44000810B50446D9
:101770000368214A934227D0B3F1804F24D0A2F5C9
:101780009432934220D002F5806293421CD002F53D
:101790000062934218D002F58062934214D002F5A1
:1017A0009032934210D002F5406293420CD002F581
:1017B0008062934208D002F58062934204D04FF4D5
:1017C000A4710E4800F088FF022384F83D3023689E
:1017D000196A41F21112114208D1196A40F24442C9
:1017E000114203D11A6822F001021A60012384F821
:1017F0003D30002010BD00BF002C014064440008B3
:1018000010B5044603681B4A934227D0B3F1804FBA
:1018100024D0A2F59432934220D002F58062934204
:101820001CD002F50062934218D002F58062934208
:1018300014D002F59032934210D002F540629342E8
:101840000CD002F58062934208D002F58062934288
:1018500004D040F25F11084800F03EFF2268D368D0
:1018600043F00103D3602268136843F0010313605F
:10187000002010BD002C01406444000870477047F0
:101880007047704710B5044603681A6912F0020FDA
:1018900011D0DA6812F0020F0DD06FF002021A6157
:1018A0000123037703689B6913F0030F79D0FFF7D7
:1018B000E6FF0023237723681A6912F0040F12D081
:1018C000DA6812F0040F0ED06FF004021A610223DE
:1018D000237723689B6913F4407F68D02046FFF785
:1018E000CEFF0023237723681A6912F0080F12D065
:1018F000DA6812F0080F0ED06FF008021A610423A4
:1019000023772368DB6913F0030F57D02046FFF7D6
:10191000B6FF0023237723681A6912F0100F12D044
:10192000DA6812F0100F0ED06FF010021A6108235F
:1019300023772368DB6913F4407F46D02046FFF706
:101940009EFF0023237723681A6912F0010F03D04A
:10195000DA6812F0010F3FD123681A6912F0800F84
:1019600003D0DA6812F0800F3DD123681A6912F4AF
:10197000807F03D0DA6812F0800F3BD123681A69A8
:1019800012F0400F03D0DA6812F0400F39D123680B
:101990001A6912F0200F03D0DA6812F0200F37D145
:1019A00010BDFFF76BFF2046FFF76AFF81E7204677
:1019B000FFF764FF2046FFF763FF92E72046FFF73B
:1019C0005DFF2046FFF75CFFA3E72046FFF756FFC9
:1019D0002046FFF755FFB4E76FF001021A61204679
:1019E00000F03AFCB8E76FF080021A61204600F080
:1019F0008CF9BAE76FF480721A61204600F086F91C
:101A0000BCE76FF040021A612046FFF73AFFBEE7DD
:101A10006FF020021A61204600F076F9C0E700005E
:101A200003682C4A90420ED0B0F1804F0BD0A2F543
:101A30009432904207D002F58062904203D002F5C2
:101A40009632904203D123F070034A681343214A2F
:101A500090421AD0B0F1804F17D0A2F59432904244
:101A600013D002F5806290420FD002F59632904278
:101A70000BD002F54062904207D002F5806290429E
:101A800003D002F58062904203D123F44073CA6808
:101A9000134323F080034A69134303608B68C362D6
:101AA0000B6883620B4B98420FD003F5006398429A
:101AB0000BD003F54063984207D003F5806398424A
:101AC00003D003F58063984201D10B6903630123BE
:101AD00043617047002C0140002866D010B50446D1
:101AE0000368334A934226D0B3F1804F23D0A2F546
:101AF000943293421FD002F5806293421BD002F5CC
:101B00000062934217D002F58062934213D002F52F
:101B1000903293420FD002F5406293420BD002F50F
:101B20008062934207D002F58062934203D0D521B0
:101B3000204800F0D1FDA3683BB1102B05D0202B2D
:101B400003D0402B01D0602B1AD123692BB1B3F500
:101B5000807F02D0B3F5007F17D1A3690BB1802B32
:101B600018D194F83D30D3B1022384F83D30211DC3
:101B70002068FFF755FF012384F83D30002010BD99
:101B8000D6210C4800F0A8FDDFE7D721094800F076
:101B9000A3FDE2E7D821074800F09EFDE1E784F8C5
:101BA0003C30204600F0B6FEDEE70120704700BF63
:101BB000002C014064440008F8B504460D46036853
:101BC0004F4A93421FD0B3F1804F1CD0A2F59432FC
:101BD000934218D002F58062934214D002F500625D
:101BE000934210D002F5806293420CD002F59032FD
:101BF000934208D002F54062934204D040F217713C
:101C0000404800F069FD2B686BB1102B0BD0202BE6
:101C100009D0302B07D0402B05D0502B03D0602BA0
:101C200001D0702B5DD1AB68802B01D0002B5ED131
:101C300094F83C30012B60D0012384F83C302368B9
:101C40005E689F682E4A934203D002F50062934279
:101C500037D16B688BB3B3F5801F2ED0B3F5001F5F
:101C60002BD0B3F5401F28D0B3F5800F25D0B3F5A6
:101C7000A00F22D0B3F5C00F1FD0B3F5E00F1CD0DA
:101C8000B3F5000F19D0B3F5100F16D0B3F5200F30
:101C900013D0B3F5300F10D0B3F5400F0DD0B3F51E
:101CA000500F0AD0B3F5600F07D0B3F5700F04D012
:101CB0004FF4E561134800F00FFD26F470066B68E1
:101CC0001E4326F070062B681E4327F08007AB6882
:101CD0003B432268566022689360002084F83C00F1
:101CE000F8BD4FF4E361074800F0F6FC9BE740F2D3
:101CF0001971044800F0F0FC9AE70220F0E700BFF9
:101D0000002C01409C440008704770477047000059
:101D1000F0B58BB0294B5A6942F400225A615A69D6
:101D200002F400220192019A5A6942F480025A6137
:101D30005A6902F480020292029A5A6942F480229D
:101D40005A615A6902F480220392039A5A6942F452
:101D500080125A615B6903F480130493049B184F4B
:101D600000224FF4E0413846FEF704FD154D0022F5
:101D70004FF480412846FEF7FDFC4FF4E043059305
:101D80000126069600240794089405A93846FEF714
:101D90007FFB4FF48043059306960794089405A9AA
:101DA0002846FEF775FB4FF400430593069407940D
:101DB00005A92846FEF76CFB0BB0F0BD00100240F1
:101DC00000040048000C00482DE9F84F834689467E
:101DD00016469846B0F90050B0F904A0AA44B2F9EA
:101DE00004309A45A8BF9A46B0F90270B0F906309F
:101DF0001F44B2F906309F42A8BF1F46B2F9003017
:101E00001D440DE043464A462146284600F0EDF8C1
:101E10000134B6F902303B44013BA342F2DC013508
:101E2000B6F900305344013BAB4205DDB6F9024040
:101E3000BBF902301C44ECE7BDE8F88FF0B585B083
:101E40000A9CB4F90A50002D0DDBB4F90860002E8D
:101E500009DB0636B4F90470BE4204D80835B4F97B
:101E60000660B54201D905B0F0BDB4F90050B4F92F
:101E7000026002EB420462000B9C0294B3FA83F30B
:101E80005B090193082300930623034C2244314449
:101E9000284400F0CBF8E6E7543D000810B582B0C6
:101EA00014461A46ADF80000ADF802100630ADF841
:101EB000040001F10803ADF80630049B2146684692
:101EC000FFF782FF02B010BD2DE9F04383B0054655
:101ED0008946164698460B9F002408E000970A9B07
:101EE000424649462846FFF7D9FF06350134B44239
:101EF000F4DB03B0BDE8F08310B582B0049C01941C
:101F000004F505740094FFF7DFFF02B010BD1081E7
:101F10005181704708B54389093343810223038106
:101F2000037B03B908BD084600F065F9FAE7F0B590
:101F300083B005460F4614461E4614E0B4F9080067
:101F4000B4F90A10019600943B46FFF777FF0EE0C4
:101F50002B780A2B17D0B4F90A300833B4F90620CD
:101F600093421ED801352A78DAB10A2AE6D12389AC
:101F700006331BB223810633B4F904209342E7D918
:101F80006B780A2BE4D031462046FFF7C3FF00F000
:101F90002FFD6B781844437813F0080FDBD0013520
:101FA000D9E703B0F0BD0CB470B59AB004460E4644
:101FB0001EAB53F8042B0093642101A800F0E8FD48
:101FC0000546234604F50572314601A8FFF7AFFF29
:101FD00094F820322BB928461AB0BDE8704002B000
:101FE0007047204600F007F9F5E700281DDB0029BF
:101FF0001BDB532819DC2F2917DC30B4CC105425F7
:1020000005FB040001F00701012404FA01F1C9B243
:102010002AB103441A7F1143197730BC7047034437
:102020001A7F22EA01011977F7E770472DE9F84F87
:1020300083468A4691461E460A9FDDF82C8000257D
:1020400025E0E31D08E00C9BFFF7CFFF0134BC4205
:102050001CDA2346002CF4DBDB1006FB035319F8D3
:102060000300614204F0070301F0070158BF4B422F
:1020700001229A40024005EB0B0004EB0A01B8F183
:10208000000FE0D0B2FA82F25209DCE70135B54226
:1020900001DA0024DBE7BDE8F88F20F02003072BEE
:1020A00001DD0120704710B582B00C4640F02000E1
:1020B00002A901F8010D4FF47A7301222068FFF79D
:1020C00067FA002002B010BD30B583B030F00D05C6
:1020D0000CD10C4602A901F8010D4FF47A730122CC
:1020E0002068FFF755FA284603B030BD0225FAE70D
:1020F000032810D810B582B00C4640F0040002A9A5
:1021000001F8010D4FF47A7301222068FFF740FABD
:10211000002002B010BD04207047072810D810B569
:1021200082B00C4640F0100002A901F8010D4FF4F6
:102130007A7301222068FFF72BFA002002B010BD4D
:102140000520704710F0800F10D110B582B00C46FA
:1021500040F0800002A901F8010D4FF47A730122CA
:102160002068FFF715FA002002B010BD0320704769
:10217000F0B583B004460D4617461E4603681A683C
:10218000136843F040031360002281888068FEF7E3
:10219000F1FA0022A1892069FEF7ECFA6423019389
:1021A000019B013B0193002BFAD10122A1892069F7
:1021B000FEF7E0FA0022A18AA069FEF7DBFA2146C9
:1021C0000120FFF76AFF21463846FFF7BBFF214693
:1021D0003046FFF78DFF21469DF82000FFF79DFF59
:1021E00021460020FFF759FF21462846FFF76CFFE4
:1021F000002003B0F0BD10B582B0044600228188F3
:102200008068FEF7B7FA0022A18AA069FEF7B2FA49
:1022100002A9802301F8013D4FF47A73012220685E
:10222000FFF7B6F902A9402301F8023D4FF47A7393
:1022300001222068FFF7ACF90122A18AA069FEF70C
:1022400099FA4FF47A734FF4FC7204F11C01206880
:10225000FFF79EF902B010BD0268044B9A4200D00D
:102260007047034A136801331360F9E70010004018
:10227000F801002010B50A4C2046FFF777FA094B09
:102280001B68094AA2FB03239B0C2268013B936253
:1022900000235362054A13602046FFF7B1FA10BDD0
:1022A000940400200800002083DE1B43F801002076
:1022B000FEE7000000B591B0012206924FF4803392
:1022C0000793002108910A9202220D920E934FF477
:1022D00080230F9306A8FEF767FAF8B90F2301933E
:1022E00002230293002103910491059101A8FEF7B6
:1022F00031FEC0B9FEF75AFF0D4BA3FB0030800939
:10230000FEF78CF80420FEF79FF8002211464FF0EC
:10231000FF30FEF727F811B05DF804FB40F2211101
:102320000448FFF7C5FF40F22F110248FFF7C0FF36
:10233000D34D6210D844000870B582B0FDF7BCFFE1
:10234000FFF7B8FFFFF7E4FC00F0B8FA00F0C6F9B9
:10235000FFF790FFFFF78EFFB64CB74B23604FF4AB
:102360008043A380B54BA3604FF40052A281236148
:102370004FF48052A282A361B14D04F50573286821
:102380006968AA6807C3AA891A80032300930223F5
:1023900040220C212046FFF7EBFE9BE0A94800F00D
:1023A000C3FBA44A134602F505720121A648FFF7B4
:1023B000BEFD40F6B830FDF7A3FF012CEED0A34CD4
:1023C00001224FF480412046FEF7D4F94FF48041BA
:1023D0002046FEF7BBF9012867D19D4B1B68DA68E0
:1023E00022F00102DA609B4A14685A6A42F21071C4
:1023F00001FB0424DA6842F00102DA60DA6822F0B4
:102400000102DA60934A1268596A42F2107000FBC6
:102410000212D96841F00101D96004F5C8618A420D
:10242000ECD38A4C00224FF480412046FEF7A2F9FB
:102430004FF480412046FEF789F9002860D14FF41F
:1024400000418248FEF782F901286FD0804B1B685B
:10245000DA6822F00102DA607E4A14685A6A42F2AF
:10246000107101FB0424DA6842F00102DA604FF4D3
:1024700000417648FEF76AF9002867D1744B1A6864
:10248000D36823F00103D360724B1B68516A42F298
:10249000107000FB0313D16841F00101D1601B1BD8
:1024A0006D4A9342E3D9012551E06C4800F03CFBB2
:1024B000604A134602F5057201216948FFF737FDAE
:1024C00000224FF480412046FEF754F940F6B83020
:1024D000FDF716FF574C00940123532200210846B4
:1024E000FFF70AFD234604F5057200210846FFF7B1
:1024F0000EFD4FF480415548FEF728F904465CE78D
:10250000584800F011FB4B4A134602F505720121B1
:102510005548FFF70CFD00224FF480412046FEF79E
:1025200029F940F6B830FDF7EBFED3E74F4800F04D
:10253000FBFA404A134602F5057201214C48FFF7A9
:10254000F6FC40F6B830FDF7DBFEC3E70025002DB2
:1025500060D13F4B1B68DA6822F00102DA603D4A25
:1025600016685A6A42F2107101FB0626DA6842F0D8
:102570000102DA604FF400413448FEF7E7F8012821
:1025800015D1334B1A68D36823F00103D360314B64
:102590001B68516A42F2107000FB0313D16841F0CE
:1025A0000101D1601B1B2C4A9342E3D90125002D68
:1025B0006CD1274B1B68DA6822F00102DA60254AE9
:1025C00014685A6A42F2107101FB0424DA6842F07E
:1025D0000102DA60A41B274EA6FB0434A40940F2D2
:1025E000571505FB04F5244BA3FB05352D09B5F55F
:1025F000FA7F5BD9214800F023FA0E4A134602F510
:10260000057201211E48FFF792FC40F6B830FDF735
:1026100077FE5FE71B4800F087FA064A134602F58B
:10262000057201211848FFF782FC40F6B830FDF72B
:1026300067FE4FE70C020020300400200004004831
:1026400054430008E844000814450008000C004802
:1026500094040020F801002020A107001C45000878
:102660004C4500085445000880450008884500088E
:10267000A8450008D34D6210CDCCCCCC3046000824
:1026800058460008B0450008DC4500080E4800F038
:102690004BFA0E4A134602F5057201210C48FFF76A
:1026A00046FC40F6B830FDF72BFE13E7094E2A46EC
:1026B0002146304600F0C4F90095234632460121F8
:1026C0000248FFF770FCA0E7E44500080C02002078
:1026D00028460008604600087047000008B5114809
:1026E000114B03604FF482734360002383604FF407
:1026F000E062C260036143614FF4007282611022A4
:10270000C2610362436283620722C26203630823D9
:102710004363FEF71FFE00B908BD47210348FFF7DA
:10272000C7FDF9E73004002000380040804600086B
:102730000268164B9A4200D07047F0B587B003F597
:10274000EC33DA6942F48042DA61DB6903F48043F6
:102750000093009B4FF40073019302270297002619
:102760000396032504950524059401A90848FDF75F
:102770008FFE4FF40043019302970396049505944E
:1027800001A90448FDF784FE07B0F0BD0038004001
:10279000001400480004004800B583B0214B9A693A
:1027A00042F001029A619A6902F001020092009AD5
:1027B000DA6942F08052DA61DB6903F080530193F9
:1027C000019B0320FDF7B0FD002211466FF00B00C6
:1027D000FDF7C8FD002211466FF00A00FDF7C2FDAB
:1027E000002211466FF00900FDF7BCFD00221146E2
:1027F0006FF00400FDF7B6FD002211466FF00300F4
:10280000FDF7B0FD002211466FF00100FDF7AAFDB3
:10281000002211464FF0FF30FDF7A4FD03B05DF834
:1028200004FB00BF001002407047FEE7FEE7FEE732
:10283000FEE770477047704708B5FDF74FFDFDF79D
:1028400022FE08BD08B50248FFF71CF808BD00BF0E
:10285000940400201549D1F8883043F47003C1F87E
:102860008830134B1A6842F001021A605868114A06
:1028700002405A601A6822F0847222F480321A6090
:102880001A6822F480221A605A6822F4FE025A6002
:10289000DA6A22F00F02DA62186B074A02401A6302
:1028A00000229A604FF000638B60704700ED00E0FB
:1028B000001002400CC07FF8CCFC00FF00B585B0D2
:1028C0001148124B03603F2343600023836042F2B0
:1028D0001072C2608361FFF7FFF850B900230193C3
:1028E000039301A90848FFF767F938B905B05DF807
:1028F00004FB3D210648FFF7DBFCEFE744210448D9
:10290000FFF7D6FCF2E700BF94040020001000405F
:102910009046000802680E4B9A4200D0704700B5FE
:1029200083B003F50033DA6942F01002DA61DB6943
:1029300003F010030193019B002211463620FDF79E
:1029400011FD3620FDF754FD03B05DF804FB00BF18
:1029500000100040DFF834D0002103E00C4B5B583E
:10296000435004310B480C4B42189A42F6D30B4AA1
:1029700002E0002342F8043B094B9A42F9D3FFF7E7
:1029800069FF00F011F8FFF7D7FCFEE700A0002078
:102990004C48000800000020DC010020DC01002081
:1029A000D8040020FEE7000070B50D4E0D4CA41BAE
:1029B000A4100025A54209D10B4E0C4C01F0AEF934
:1029C000A41BA4100025A54205D170BD56F82530E2
:1029D00098470135EEE756F8253098470135F2E77C
:1029E0004448000844480008444800084848000893
:1029F000044B054A1B681B6A002B08BF1346D3F81B
:102A0000EC0070470C0000207000002082B001B97B
:102A100001A942B14BB113780B601278101C18BF9A
:102A2000012002B070471046FBE76FF00100F8E7A5
:102A300002440346934200D1704703F8011BF9E7B3
:102A40000FB40A4B13B51C6824B1A36913B920460F
:102A500000F06AFA05AB049AA1680193204600F0E1
:102A600073FD02B0BDE8104004B070470C000020B8
:102A700070B50E46054618B183690BB900F054FADB
:102A8000AB69AC6813B9284600F04EFA234B9C4260
:102A900017D16C68A3891B071DD52369DBB1013EE3
:102AA000A36816F8011F013BA360E9B9002B2EDAD9
:102AB00022460A21284600F079F8013011D00A2078
:102AC00011E0174B9C4201D1AC68E3E7154B9C42E7
:102AD00008BFEC68DEE72146284600F0C7F800286A
:102AE000DDD04FF0FF3070BD002B04DAA2699A42AE
:102AF00006DC0A2904D023685A1C22601970CFE72B
:102B00002246284600F052F80130C9D1E9E723688F
:102B10000A205A1C22601870E5E700BFD047000861
:102B2000F0470008B0470008024B01461868FFF75D
:102B30009FBF00BF0C00002030B5141E05469BB09F
:102B4000184605DA8B232B604FF0FF301BB030BDE9
:102B50004FF40273ADF80C3014BF04F1FF33234679
:102B6000029305934FF6FF7300910491ADF80E3078
:102B700002461E9B6946284600F0C6FB431CBCBFAC
:102B80008B232B60002CE1D0009B00221A70DDE724
:102B900007B5009313460A46014603480068FFF74D
:102BA000CBFF03B05DF804FB0C000020F8B50E4627
:102BB0001446054618B183690BB900F0B5F9214BED
:102BC0009C422AD16C68A369A360A3891A072ED5F9
:102BD000236963B323692068C01A6369F6B283422C
:102BE000374604DC2146284600F034F928BBA368A8
:102BF000013BA36023685A1C22601E706369013088
:102C0000834204D0A389DB0719D50A2E17D12146A8
:102C1000284600F01FF990B10FE00B4B9C4201D108
:102C2000AC68D0E7094B9C4208BFEC68CBE7214673
:102C3000284600F01BF80028CCD04FF0FF3738466C
:102C4000F8BD00BFD0470008F0470008B0470008B3
:102C500049B1FF2A85BF8A2303600A704FF0FF3015
:102C600098BF01207047084670470000324B70B58E
:102C70001D6806460C4625B1AB6913B9284600F01D
:102C800053F92E4B9C420FD16C68B4F90C309AB2B8
:102C900015072CD4D00611D40922326043F040032A
:102CA000A3814FF0FF303EE0254B9C4201D1AC6840
:102CB000EBE7244B9C4208BFEC68E6E7510712D5CE
:102CC000616B41B104F14403994202D0304600F0F7
:102CD00019FA00236363A38923F02403A38100234B
:102CE000636023692360A38943F00803A3812369F8
:102CF0004BB9A38903F42073B3F5007F03D02146B9
:102D0000304600F0BFF9A28912F001030CD0002375
:102D1000A36063695B42A361236953B9B4F90C30C2
:102D200013F08000BAD170BD920758BF6369A360E9
:102D3000F2E70020F7E700BF0C000020D0470008B2
:102D4000F0470008B04700088A892DE9F0410546A0
:102D500010070C4658D44B68002B05DC0B6C002B7D
:102D600002DC0020BDE8F081E66A002EF9D00023E5
:102D700012F480522F68216A2B6032D0606DA389D3
:102D80005A0705D56368C01A636B0BB1236CC01A70
:102D900000230246E66A216A2846B047431CA389FD
:102DA00006D129681D2948D8294ACA40D60744D5E2
:102DB00000226260D9042269226004D5421C01D13C
:102DC0002B6803B96065616B2F600029C9D004F1DD
:102DD0004403994202D0284600F094F90020606331
:102DE000C0E701232846B047411CC8D12B68002BFF
:102DF000C5D01D2B01D0162B01D12F60B1E7A389BF
:102E000043F04003A381ADE70F69002FA9D09307DA
:102E10000E6808BF4B690F6018BF0023A6EB0708B8
:102E20008B60B8F1000F9CDD43463A46216AA66AE2
:102E30002846B047002806DCA38943F04003A3815D
:102E40004FF0FF308EE70744A8EB0008E9E700BF2A
:102E50000100402038B50B6905460C46DBB118B1BE
:102E600083690BB900F060F80C4B9C4209D16C6887
:102E7000B4F90C307BB121462846BDE83840FFF755
:102E800063BF074B9C4201D1AC68F1E7054B9C4204
:102E900008BFEC68ECE7002038BD00BFD047000851
:102EA000F0470008B0470008002310B50446C0E909
:102EB0000033836081814366C281C0E9043383614A
:102EC000194608225C30FFF7B3FD054B6362054BE2
:102ED000A362054BE362054B2462236310BD00BF70
:102EE000A13A0008C33A0008FB3A00081F3B00085B
:102EF000014900F085B800BF552E000870B54A1E84
:102F0000682555430E4605F1740100F049F9044661
:102F100040B10021C0E900160C30A06005F1680244
:102F2000FFF786FD204670BD836910B5044633BBAC
:102F3000C0E912330365124B124A1B688262984241
:102F400004BF0123836100F01FF86060204600F099
:102F50001BF8A060204600F017F80022E060042172
:102F60006068FFF7A1FF01220921A068FFF79CFF1D
:102F700002221221E068FFF797FF0123A36110BD31
:102F8000A0460008F12E0008F8B51B4B1E68B36977
:102F9000074613B93046FFF7C7FF4836D6E9013474
:102FA000013B03D5336833B13668F7E7B4F90C5009
:102FB0006DB16834F4E704213846FFF79FFF3060B5
:102FC0000028F1D10C233B6004462046F8BD0B4B92
:102FD0006566C4E90055A560C4E90335C4E9055533
:102FE0000822294604F15C00FFF722FDC4E90D55D3
:102FF000C4E91255E9E700BFA04600080100FFFF41
:103000002DE9F8438046894600F14804002614B9AA
:103010003046BDE8F883D4E90175013F01D5246845
:10302000F5E7AB89012B07D9B5F90E30013303D091
:1030300029464046C84706436835EEE770B50E4658
:10304000B1F90E10002996B014461D4607DA002388
:103050002B60B3891A0610D44FF480630EE06A46E1
:1030600000F084FD0028F2DB019A02F47042A2F520
:1030700000535A425A412A60EEE740230020236061
:1030800016B070BD8B8973B59D0706460C4607D5F3
:1030900004F14703236023610123636102B070BD23
:1030A00001AB6A46FFF7CAFF00990546304600F0BB
:1030B00077F848B9B4F90C309A05EFD423F003033C
:1030C00043F00203A381E3E70D4BB362A3892060C1
:1030D00043F08003A381009B6361019B20615BB18E
:1030E000B4F90E10304600F053FD28B1A38923F047
:1030F000030343F00103A381A3891D43A581CDE709
:10310000F12E000838B50546002945D051F8043C99
:103110000C1F002BB8BFE41800F080FD1F4A136895
:10312000104633B9636014602846BDE8384000F0AB
:1031300076BDA3420CD921686218934204BF1A6875
:103140005B68636004BF521822600460ECE71346BA
:103150005A680AB1A242FAD919685818A0420BD18C
:1031600020680144581882421960DDD11068526805
:103170005A6001441960D7E702D90C232B60D3E7CA
:10318000206821188A4204BF11685268626004BF37
:10319000091821605C60C7E738BD00BFFC01002052
:1031A00070B5CD1C25F0030508350C2D38BF0C2556
:1031B000002D064601DBA94203D90C233360002011
:1031C00070BD00F02BFD214A1468214691B9204CB6
:1031D00023681BB9304600F053FC20602946304676
:1031E00000F04EFC431C24D10C233360304600F029
:1031F00016FDE4E70B685B1B18D40B2B0FD90B6093
:10320000CD50CC18304600F00AFD04F10B00231D10
:1032100020F00700C31AD3D05A42E250D0E78C42C4
:103220004B6816BF636013600C46EBE70C464968B9
:10323000CCE7C41C24F00304A04205D0211A304678
:1032400000F01EFC0130CFD02560DBE7FC01002040
:10325000000200202DE9F0478E689E4282460C460F
:103260009046994637D88A8912F4906F31D02568F4
:1032700009696F1A6569022305EB450595FBF3F5AE
:1032800009F101033B449D4238BF1D46530530D52B
:103290002946FFF785FF064650B90C23CAF80030CF
:1032A000A38943F04003A3814FF0FF30BDE8F087CE
:1032B0003A46216900F08EFCA38923F4906343F021
:1032C0008003A381266165613E44ED1B2660A560F5
:1032D0004E464E4500D94E4632464146206800F0E3
:1032E00084FCA3689B1BA36023681E442660002007
:1032F000DCE72A4600F094FC06460028E2D121696A
:103300005046FFF7FFFEC8E72DE9F04F9DB080461D
:1033100003938B891D060C4616460FD50B696BB9B6
:103320004021FFF73DFF2060206128B90C23C8F839
:1033300000304FF0FF30C7E0402363610023099362
:1033400020238DF8293030238DF82A304FF0010BDF
:1033500037463D4615F8013B0BB1252B3ED1B7EB67
:10336000060A0BD05346324621464046FFF772FF0D
:10337000013000F0A480099B534409933B78002B53
:1033800000F09D8000234FF0FF32CDE90523049328
:1033900007938DF853301A932F46052217F8011B17
:1033A0004F48FCF715FF049BD0B9D90644BF202233
:1033B0008DF853201A0744BF2B228DF853202A780A
:1033C0002A2A15D0079A2F4600200A25394611F8D7
:1033D000013B303B092B4DD9B8B10FE02F46B8E780
:1033E0003F4A801A0BFA00F0184304903D46D3E799
:1033F000039A111D12680391002A01DB079204E071
:10340000524243F00203079204933B782E2B0CD1D7
:103410007B782A2B33D1039B1A1D1B680392002B48
:10342000B8BF4FF0FF33023705932E4D3978032292
:103430002846FCF7CDFE38B14023401B03FA00F0CC
:10344000049B034301370493397827488DF82810EB
:1034500006227E1CFCF7BCFE002838D0234B13BB91
:10346000039B073323F0070308330393099B4B4463
:1034700009936DE705FB023201200F46A6E7002302
:103480000137059319460A25384610F8012B303AC2
:10349000092A03D9002BC8D00591C6E705FB0121F5
:1034A00001230746F0E703AB00932246104B04A923
:1034B0004046AFF30080B0F1FF3F8146D6D1A389EB
:1034C0005B063FF536AF09981DB0BDE8F08F03AB42
:1034D00000932246064B04A9404600F0BFF9EAE7F4
:1034E00010480008164800081A48000800000000AC
:1034F000553200089368013B002B10B4936008DA42
:103500009469A34201DB0A2903D15DF8044BFFF75C
:103510004DBB1368581C1060197008465DF8044BC9
:103520007047F8B506460F461446D518AC4201D18F
:10353000002007E03A4614F8011B3046FFF7DAFF97
:10354000431CF3D1F8BD00002DE9F04F9DB00C46AF
:1035500017460393064618B183690BB9FFF7E4FCDD
:103560007B4B9C4257D17468A38918075DD52369AA
:10357000002B5AD00023099320238DF829303023C3
:103580008DF82A304FF0010BB846454615F8013B3F
:103590000BB1252B54D1B8EB070A0BD053463A4652
:1035A00021463046FFF7BDFF013000F0C280099B85
:1035B0005344099398F80030002B00F0BA800023A0
:1035C0004FF0FF32CDE90523049307938DF8533074
:1035D0001A93A846052218F8011B5E48FCF7F8FD6F
:1035E000049B78BBD90644BF20228DF853201A07CC
:1035F00044BF2B228DF853202A782A2A2AD0079AF2
:10360000A84600200A25414611F8013B303B092B12
:1036100069D960B324E0504B9C4201D1B468A3E760
:103620004E4B9C4208BFF4689EE721463046FFF7A8
:103630001DFB00289ED04FF0FF301DB0BDE8F08F7D
:10364000A846A2E7434A801A0BFA00F018430490F8
:103650004546BEE7039A111D12680391002A01DB5B
:10366000079204E0524243F002030792049398F851
:1036700000302E2B0ED198F801302A2B38D1039B25
:103680001A1D1B680392002BB8BF4FF0FF3308F1DF
:1036900002080593324D98F8001003222846FCF7E3
:1036A00097FD40B14023401B03FA00F0049B034305
:1036B00008F10108049398F800102A488DF82810A2
:1036C000062208F10107FCF783FD002837D0264BBE
:1036D0001BBB039B073323F0070308330393099BAA
:1036E0004B44099350E705FB0232012088468AE7E4
:1036F000002308F10108059319460A25404610F8F1
:10370000012B303A092A03D9002BC3D00591C1E718
:1037100005FB012101238046F0E703AB009322461D
:10372000124B04A93046AFF30080B0F1FF3F814651
:10373000D5D1A3895B063FF57EAF09987DE703AB42
:1037400000932246094B04A9304600F087F8ECE7C5
:10375000D047000810480008F0470008B0470008AC
:10376000164800081A480008000000002335000829
:103770002DE9F04791461F468A680B69DDF82080E5
:103780009342B8BF1346C9F8003091F8432006466B
:103790000C4612B10133C9F800302368990642BFC4
:1037A000D9F800300233C9F80030256815F0060555
:1037B00007D104F1190AE368D9F800209B1AAB423B
:1037C00028DC94F843302268003318BF01239206A6
:1037D0002DD404F1430239463046C047013020D091
:1037E0002368E568D9F8002003F00603042B08BF1E
:1037F000AD1AA36822690CBF25EAE575002593423E
:10380000C4BF9B1AED184FF000091A344D451AD168
:10381000002008E00123524639463046C0470130B7
:1038200003D14FF0FF30BDE8F0870135C3E7E11861
:103830005A1C302081F84300224494F8451082F845
:1038400043100233C5E70123224639463046C047BC
:103850000130E6D009F10109D8E700002DE9F04375
:1038600001F1430C0C46097E85B06E2917460646C9
:1038700098460C9A00F0B38022D8632936D00AD833
:10388000002900F0B980582900F0838004F1420536
:1038900084F8421032E0642901D06929F6D1206809
:1038A0001368050603F104012AD51B681160002B7B
:1038B00003DA2D225B4284F843206F480A2239E064
:1038C000732900F09D8008D86F2920D07029DDD1A0
:1038D000236843F02003236003E0752917D078297B
:1038E000D4D1782384F84530644855E01368191D15
:1038F0001B68116004F1420584F8423001238CE01A
:103900001B68116010F0400F18BF1BB2CFE713689F
:103910002568181D1060280601D51B6802E068069E
:10392000FBD51B8854486F2914BF0A2208220021A6
:1039300084F843106568A560002DC0F29580216869
:1039400021F004012160002B3DD1002D40F08E803C
:103950006546082A0BD12368DB0708D5236962680E
:103960009A42DEBF302305F8013C05F1FF35ACEB90
:1039700005032361CDF800803B4603AA214630466B
:10398000FFF7F6FE01304DD14FF0FF3005B0BDE836
:10399000F083394884F84510136821681D1D1B68A1
:1039A00015600A060BD5CA0744BF41F0200121600B
:1039B0001BB9226822F0200222601022B7E74D06D0
:1039C00048BF9BB2EFE76546B3FBF2F102FB113350
:1039D000C35C05F8013D0B460029F5D1B9E7136832
:1039E00025686169181D106028061B6801D51960DB
:1039F00002E06A06FBD51980002323616546B9E71A
:103A00001368191D11601D68626800212846FCF7C3
:103A1000DFFB08B1401B606063682361002384F80A
:103A20004330A7E723692A4639463046C04701306C
:103A3000AAD023689B0713D4E068039B9842B8BFC1
:103A40001846A3E701234A4639463046C0470130AD
:103A50009AD00135E368039A9B1AAB42F2DCEBE79C
:103A6000002504F11909F5E7002BACD1037884F89F
:103A7000423004F142056CE7214800083248000852
:103A800038B5064C002305460846236000F030F99F
:103A9000431C02D1236803B12B6038BDD40400203D
:103AA00010B50C46B1F90E1000F0E0F80028ABBFDD
:103AB000636DA3891B1823F48053ACBF6365A38196
:103AC00010BD2DE9F0411F468B89DB0505460C46EC
:103AD000164605D502230022B1F90E1000F068F851
:103AE000A389B4F90E1023F48053A38132463B46D8
:103AF0002846BDE8F04100F017B810B50C46B1F902
:103B00000E1000F055F8431CA38915BF606523F41F
:103B1000805343F48053A38118BFA38110BDB1F932
:103B20000E1000F013B8000038B5074C05460846E3
:103B30001146002222601A4600F0E8F8431C02D128
:103B4000236803B12B6038BDD404002038B5064C7F
:103B5000002305460846236000F0A2F8431C02D16A
:103B6000236803B12B6038BDD404002038B5074C5E
:103B70000023054608461146236000F099F8431CCF
:103B800002D1236803B12B6038BD00BFD4040020EC
:103B900038B5064C002305460846236000F090F82F
:103BA000431C02D1236803B12B6038BDD40400202C
:103BB00038B5074C054608461146002222601A46D1
:103BC00000F086F8431C02D1236803B12B6038BD96
:103BD000D404002010B5431E0A44914200D110BD08
:103BE00011F8014B03F8014FF7E7884210B501EBDC
:103BF000020307D8421E99420AD011F8014B02F87D
:103C0000014FF8E78342F5D98118D21AD34200D187
:103C100010BD13F8014D01F8014DF7E770477047EB
:103C2000F8B5074614460E4621B91146BDE8F840DE
:103C3000FFF7B6BA22B9FFF765FA25462846F8BD60
:103C400000F026F8A0420FD221463846FFF7A8FA26
:103C500005460028F2D031462246FFF7BBFF314629
:103C60003846FFF74FFAE9E73546E7E738B5074C3E
:103C7000054608461146002222601A4600F030F838
:103C8000431C02D1236803B12B6038BDD40400204B
:103C900051F8043C181F002BBCBF0B58C0187047CC
:103CA000024B58221A604FF0FF307047D4040020B6
:103CB000024B58221A604FF0FF307047D4040020A6
:103CC000024B58221A600020704700BFD404002025
:103CD000024B58221A604FF0FF307047D404002086
:103CE000024B58221A604FF0FF307047D404002076
:103CF000044A05491368002B08BF0B46184410609E
:103D00001846704704020020D8040020024B5822B5
:103D10001A604FF0FF307047D4040020F8B500BFA0
:103D2000F8BC08BC9E467047F8B500BFF8BC08BC9C
:043D30009E467047F4
:103D340002030405060708090A0B0C0D0E0F1010E8
:103D44000102030405060708090A0B0C0D0E0F10E7
:103D5400000000000000000000000000000000005F
:103D6400000000000000000000000000000000004F
:103D7400000000000000000000000000000000003F
:103D8400000000000000000000000000000000002F
:103D9400000000000000000000000000000000001F
:103DA400000000000000000000000000000000000F
:103DB40000000000000000000000000000000000FF
:103DC40000000000000000000000000000000000EF
:103DD40000000000000000000000000000000000DF
:103DE40000000000000000000000000000000000CF
:103DF40000000000000000000000000000000000BF
:103E040000000000000000000000000000000000AE
:103E140000000000000000005F0000000007000731
:103E24000000147F147F1400242A6B2A1200231329
:103E34000864620036495620500000000700000064
:103E4400001C224100000041221C00000A040E0450
:103E54000A0008083E080800004030000000080876
:103E640008080800006060000000403008060100F7
:103E74003E5149453E0000427F4000007249494995
:103E840046002141494D33001814127F1000274584
:103E9400454539003E49494932004121110907008D
:103EA400364949493600264949493E000000140074
:103EB40000000040340000000814224100001414E3
:103EC40014141400004122140800020159090600C8
:103ED4003E415D4926007C1211127C007F4949490C
:103EE40036003E41414122007F4141413E007F492D
:103EF400494941007F09090103003E4141517300D2
:103F04007F0808087F0000417F4100002040413FB6
:103F140001007F08142241007F40404060007F027E
:103F24001C027F007F0408107F003E4141413E0097
:103F34007F09090906003E4151215E007F091929C4
:103F4400460026494949320003017F0103003F40EE
:103F540040403F001F2040201F003F4038403F00AA
:103F6400631408146300030478040300635149458F
:103F74006300007F41410000010608304000004119
:103F8400417F000004020102040040404040400020
:103F94000001020400002054547840007F28444467
:103FA4003800384444442800384444287F003854B6
:103FB4005454180000087E09020018A4A49C780038
:103FC4007F080404780000447D4000002040403D08
:103FD40000007F102844000000417F4000007C0462
:103FE400780478007C080404780038444444380099
:103FF400FC182424180018242418FC007C08040449
:10400400080048545454240004043F4424003C4011
:1040140040207C001C2040201C003C4030403C00E0
:104024004428102844004C9090907C004464544CE4
:104034004400000836410000000077000000004101
:10404400360800000804081008003C2623263C001B
:104054007F11094830007C04050400000040300052
:10406400000000780A0900004030004030004000A1
:104074004000400000027F02000000227F22000076
:104084003E55554122001308640260007C027F48BB
:1040940030000008140000007F087F4830007E18BC
:1040A400192442007F11090870007F40C0407F003E
:1040B4007F128A7000000000060100000004030063
:1040C4000000060100060100040300040300000CC4
:1040D4000C00000000080808000008080808080090
:1040E40000000000000078112711780070087C504F
:1040F40020000000140800007C107C5020007C107C
:10410400122944007F120A7000007C40C0407C00E9
:10411400000000000000234439040300244932094C
:10412400040020413F0100005D2222225D007E0246
:1041340002020100000077000000004A5529000037
:104144007C55544500003E7F63773E003E4949411B
:1041540022000814000814000808080818000000C9
:10416400000000003E5F4B553E0000457C450000CA
:1041740000040A04000044445F44440000417F41B9
:10418400000000447D4000007C04040200007C1018
:10419400103C4000060F7F017F0000000800000073
:1041A4003855545518007C10207C01003854544470
:1041B400280014080014080020403D00000066494F
:1041C4004949330008545454200000457C41000000
:1041D4007C1211127C007F49494930007F494949CA
:1041E40036007F0101010100C07E417FC0007F498C
:1041F4004949410077087F0877000049494936005A
:104204007F1008047F007F1009047F007F081422B8
:1042140041007C0201017F007F020C027F007F08C5
:1042240008087F003E4141413E007F0101017F00BB
:104234007F09090906003E414141220001017F0135
:104244000100074848483F000E117F110E00631417
:10425400081463007F40407FC000070808087F00FF
:104264007F407F407F007F407F40FF00017F4848C0
:1042740030007F4830007F007F48484830002241AA
:1042840049493E007F083E413E00462919097F0006
:104294002054545478007C54545420007C54545476
:1042A40028007C0404040000C078447CC000385416
:1042B400545418006C107C106C00005454542800A2
:1042C4007C2010087C007C2012087C007C101028C4
:1042D4004400700804047C007C0810087C007C10F6
:1042E40010107C003844444438007C0404047C00EE
:1042F4007C141414080038444444280004047C0446
:1043040004000C5050503C003844FC44380044280D
:10431400102844007C40407CC0000C1010107C002D
:104324007C407C407C007C407C40FC00047C505001
:1043340020007C5020007C007C5050200000284449
:10434400545438007C1038443800483414147C0029
:1043540000000000540030000000000001000000D4
:104364000000000000000000010203040607080921
:1043740000000000010203042E2E2F4472697665AA
:1043840072732F53544D3332463378785F48414C1F
:104394005F4472697665722F5372632F73746D3341
:1043A40032663378785F68616C5F636F72746578C6
:1043B4002E6300002E2E2F447269766572732F537C
:1043C400544D3332463378785F48414C5F447269C8
:1043D4007665722F5372632F73746D33326633783C
:1043E400785F68616C5F6770696F2E63000000001E
:1043F4002E2E2F447269766572732F53544D3332C7
:10440400463378785F48414C5F4472697665722F11
:104414005372632F73746D3332663378785F6861D7
:104424006C5F7263632E63002E2E2F44726976656F
:1044340072732F53544D3332463378785F48414C6E
:104444005F4472697665722F5372632F73746D3390
:1044540032663378785F68616C5F7370692E6300CD
:104464002E2E2F447269766572732F53544D333256
:10447400463378785F48414C5F4472697665722FA1
:104484005372632F73746D3332663378785F686167
:104494006C5F74696D2E63002E2E2F4472697665ED
:1044A40072732F53544D3332463378785F48414CFE
:1044B4005F4472697665722F5372632F73746D3320
:1044C40032663378785F68616C5F74696D5F6578B4
:1044D4002E6300002E2E2F5372632F6D61696E2E92
:1044E4006300000057726F6E6720737461746520F7
:1044F4006265666F72652074726967676572696E5A
:10450400672C2054726967206973206869676800A2
:104514004572726F722031004C696E652054726965
:104524006720646F206E6F742077656E74206869ED
:104534006768207768696C6520747269676765725B
:10454400696E672E000000004572726F722032009F
:104554004C696E65205472696720646F206E6F74B5
:104564002077656E74206C6F7720616674657220A5
:1045740074726967676572696E672E004572726F3F
:10458400722033004C696E65204543484F2069739F
:10459400206869676820746F6F206561726C792E7A
:1045A400000000004572726F722034004C696E6521
:1045B400204543484F206469646E277420676F2048
:1045C4006869676820666F722061206C6F6E67206F
:1045D40074696D652E0000004572726F722035009B
:1045E4004C696E65204543484F206469646E2774A6
:1045F40020676F206C6F7720616674657220656335
:10460400686F696E672070756C736520737461726E
:10461400656420666F722061206C6F6E6720746918
:104624006D652E004572726F7220360009546F6FEB
:1046340020666172202D2D20706F737369626C790E
:10464400206E6F206563686F20617420616C6C2E2E
:10465400000000004572726F7220370054696D6566
:104664003A20256C752075732C2064697374616E0F
:1046740063653A20256C7520636D0A002E2E2F5336
:1046840072632F7370692E63000000002E2E2F5367
:1046940072632F74696D2E63000000001000002007
:1046A4004300504F534958002E0000202020202062
:1046B40020202020282828282820202020202020CE
:1046C40020202020202020202020208810101010BE
:1046D4001010101010101010101010040404040412
:1046E400040404040410101010101010414141413E
:1046F4004141010101010101010101010101010126
:104704000101010101011010101010104242424237
:1047140042420202020202020202020202020202F5
:104724000202020202021010101020000000000019
:104734000000000000000000000000000000000075
:104744000000000000000000000000000000000065
:104754000000000000000000000000000000000055
:104764000000000000000000000000000000000045
:104774000000000000000000000000000000000035
:104784000000000000000000000000000000000025
:104794000000000000000000000000000000000015
:1047A4000000000000000000000000000000000005
:1047B40000000000000000000000000000000000F5
:1047C40000000000000000000000000000000000E5
:1047D40000000000000000000000000000000000D5
:1047E40000000000000000000000000000000000C5
:1047F40000000000000000000000000000000000B5
:10480400000000000000000000000000232D302BF9
:104814002000686C4C0065666745464700303132BD
:104824003334353637383941424344454600303114
:104834003233343536373839616263646566000073
:04484400B5010008B2
:0448480091010008D2
:10484C00010000001000000000127A00100000208F
:10485C0000000000D0470008F0470008B0470008EF
:10486C00000000000000000000000000000000003C
:10487C00000000000000000000000000000000002C
:10488C00000000000000000000000000000000001C
:10489C00000000000000000000000000000000000C
:1048AC0000000000000000000000000000000000FC
:1048BC0043000000000000000000000000000000A9
:1048CC0000000000000000000000000000000000DC
:1048DC004300000000000000000000000000000089
:1048EC0000000000000000000000000000000000BC
:1048FC004300000000000000000000000000000069
:10490C00000000000000000000000000000000009B
:10491C004300000000000000000000000000000048
:10492C00000000000000000000000000000000007B
:10493C004300000000000000000000000000000028
:10494C00000000000000000000000000000000005B
:10495C004300000000000000000000000000000008
:10496C00000000000000000000000000000000003B
:10497C0043000000000000000000000000000000E8
:10498C00000000000000000000000000000000001B
:10499C00512C00080D2A000800000000AE4600084B
:1049AC00AC460008154800081548000815480008D2
:1049BC001548000815480008154800081548000857
:1049CC001548000815480008FFFFFFFFFFFFFFFF19
:1049DC00FFFFFFFFFFFF0000010041534349490067
:1049EC0000000000000000000000000000000000BB
:1049FC000000000000000000000041534349490042
:104A0C00000000000000000000000000000000009A
:0C4A1C000000000000000000000000008E
:040000050800295571
:00000001FF
